{
	"data": {
		"bytecode": {
			"linkReferences": {},
			"object": "608060405234801561000f575f80fd5b5060405161090138038061090183398101604081905261002e9161007e565b60015f81905580546001600160a01b039384166001600160a01b031991821617909155600280549290931691161790556100af565b80516001600160a01b0381168114610079575f80fd5b919050565b5f806040838503121561008f575f80fd5b61009883610063565b91506100a660208401610063565b90509250929050565b610845806100bc5f395ff3fe608060405234801561000f575f80fd5b50600436106100e4575f3560e01c8063a694fc3a11610088578063bea0815111610063578063bea08151146101be578063cd3daf9d146101dd578063f245ace4146101e5578063f43630bd14610204575f80fd5b8063a694fc3a14610190578063adca9b72146101a3578063b88a802f146101b6575f80fd5b80632e1a7d4d116100c35780632e1a7d4d14610142578063399080ec146101575780635997bb371461017f5780636aa0838f14610187575f80fd5b80628cc262146100e85780630bd21c561461010e578063211f6ce114610139575b5f80fd5b6100fb6100f636600461073c565b610223565b6040519081526020015b60405180910390f35b600254610121906001600160a01b031681565b6040516001600160a01b039091168152602001610105565b6100fb60045481565b610155610150366004610769565b61029e565b005b6100fb61016536600461073c565b6001600160a01b03165f9081526008602052604090205490565b6100fb606481565b6100fb60035481565b61015561019e366004610769565b6103f2565b600154610121906001600160a01b031681565b610155610564565b6100fb6101cc36600461073c565b60066020525f908152604090205481565b6100fb610685565b6100fb6101f336600461073c565b60056020525f908152604090205481565b6100fb61021236600461073c565b60086020525f908152604090205481565b6001600160a01b0381165f908152600660209081526040808320546005909252822054670de0b6b3a764000090610258610685565b6102629190610794565b6001600160a01b0385165f9081526008602052604090205461028491906107a7565b61028e91906107be565b61029891906107dd565b92915050565b6102a66106e1565b336102af610685565b600455426003556102bf81610223565b6001600160a01b0382165f90815260066020908152604080832093909355600454600590915291812091909155600780548492906102fe908490610794565b9091555050335f9081526008602052604081208054849290610321908490610794565b9091555050604051829033907ffaf925a2782590ece15b73bcce340ae5a670caabcd87ae54e330c05ab6b92cf4905f90a360015460405163a9059cbb60e01b8152336004820152602481018490525f916001600160a01b03169063a9059cbb906044016020604051808303815f875af11580156103a0573d5f803e3d5ffd5b505050506040513d601f19601f820116820180604052508101906103c491906107f0565b9050806103e4576040516312171d8360e31b815260040160405180910390fd5b50506103ef60015f55565b50565b336103fb610685565b6004554260035561040b81610223565b6001600160a01b0382165f9081526006602090815260408083209390935560045460059091529190205561043d6106e1565b81805f0361045e57604051630f45911f60e41b815260040160405180910390fd5b8260075f82825461046f91906107dd565b9091555050335f90815260086020526040812080548592906104929084906107dd565b9091555050604051839033907f9e71bc8eea02a63969f509818f2dafb9254532904319f9dbda79b67bd34a5f3d905f90a360015460405163a9059cbb60e01b8152306004820152602481018590525f916001600160a01b03169063a9059cbb906044016020604051808303815f875af1158015610511573d5f803e3d5ffd5b505050506040513d601f19601f8201168201806040525081019061053591906107f0565b905080610555576040516312171d8360e31b815260040160405180910390fd5b505061056060015f55565b5050565b61056c6106e1565b33610575610685565b6004554260035561058581610223565b6001600160a01b0382165f90815260066020818152604080842094909455600454600582528484205533808452919052828220805490839055925183927ffc30cddea38e2bf4d6ea7d3f9ed3b6ad7f176419f4963bd81318067a4aee73fe91a360025460405163a9059cbb60e01b8152336004820152602481018390525f916001600160a01b03169063a9059cbb906044016020604051808303815f875af1158015610633573d5f803e3d5ffd5b505050506040513d601f19601f8201168201806040525081019061065791906107f0565b905080610677576040516312171d8360e31b815260040160405180910390fd5b50505061068360015f55565b565b5f6007545f03610696575060045490565b6007546064600354426106a99190610794565b6106b391906107a7565b6106c590670de0b6b3a76400006107a7565b6106cf91906107be565b6004546106dc91906107dd565b905090565b60025f54036107365760405162461bcd60e51b815260206004820152601f60248201527f5265656e7472616e637947756172643a207265656e7472616e742063616c6c00604482015260640160405180910390fd5b60025f55565b5f6020828403121561074c575f80fd5b81356001600160a01b0381168114610762575f80fd5b9392505050565b5f60208284031215610779575f80fd5b5035919050565b634e487b7160e01b5f52601160045260245ffd5b8181038181111561029857610298610780565b808202811582820484141761029857610298610780565b5f826107d857634e487b7160e01b5f52601260045260245ffd5b500490565b8082018082111561029857610298610780565b5f60208284031215610800575f80fd5b81518015158114610762575f80fdfea26469706673582212205beff84cecf97a9b8b63f6f0edcb1bc1375ac9badd612c2c4967a341698ee5d364736f6c63430008150033",
			"opcodes": "PUSH1 0x80 PUSH1 0x40 MSTORE CALLVALUE DUP1 ISZERO PUSH2 0xF JUMPI PUSH0 DUP1 REVERT JUMPDEST POP PUSH1 0x40 MLOAD PUSH2 0x901 CODESIZE SUB DUP1 PUSH2 0x901 DUP4 CODECOPY DUP2 ADD PUSH1 0x40 DUP2 SWAP1 MSTORE PUSH2 0x2E SWAP2 PUSH2 0x7E JUMP JUMPDEST PUSH1 0x1 PUSH0 DUP2 SWAP1 SSTORE DUP1 SLOAD PUSH1 0x1 PUSH1 0x1 PUSH1 0xA0 SHL SUB SWAP4 DUP5 AND PUSH1 0x1 PUSH1 0x1 PUSH1 0xA0 SHL SUB NOT SWAP2 DUP3 AND OR SWAP1 SWAP2 SSTORE PUSH1 0x2 DUP1 SLOAD SWAP3 SWAP1 SWAP4 AND SWAP2 AND OR SWAP1 SSTORE PUSH2 0xAF JUMP JUMPDEST DUP1 MLOAD PUSH1 0x1 PUSH1 0x1 PUSH1 0xA0 SHL SUB DUP2 AND DUP2 EQ PUSH2 0x79 JUMPI PUSH0 DUP1 REVERT JUMPDEST SWAP2 SWAP1 POP JUMP JUMPDEST PUSH0 DUP1 PUSH1 0x40 DUP4 DUP6 SUB SLT ISZERO PUSH2 0x8F JUMPI PUSH0 DUP1 REVERT JUMPDEST PUSH2 0x98 DUP4 PUSH2 0x63 JUMP JUMPDEST SWAP2 POP PUSH2 0xA6 PUSH1 0x20 DUP5 ADD PUSH2 0x63 JUMP JUMPDEST SWAP1 POP SWAP3 POP SWAP3 SWAP1 POP JUMP JUMPDEST PUSH2 0x845 DUP1 PUSH2 0xBC PUSH0 CODECOPY PUSH0 RETURN INVALID PUSH1 0x80 PUSH1 0x40 MSTORE CALLVALUE DUP1 ISZERO PUSH2 0xF JUMPI PUSH0 DUP1 REVERT JUMPDEST POP PUSH1 0x4 CALLDATASIZE LT PUSH2 0xE4 JUMPI PUSH0 CALLDATALOAD PUSH1 0xE0 SHR DUP1 PUSH4 0xA694FC3A GT PUSH2 0x88 JUMPI DUP1 PUSH4 0xBEA08151 GT PUSH2 0x63 JUMPI DUP1 PUSH4 0xBEA08151 EQ PUSH2 0x1BE JUMPI DUP1 PUSH4 0xCD3DAF9D EQ PUSH2 0x1DD JUMPI DUP1 PUSH4 0xF245ACE4 EQ PUSH2 0x1E5 JUMPI DUP1 PUSH4 0xF43630BD EQ PUSH2 0x204 JUMPI PUSH0 DUP1 REVERT JUMPDEST DUP1 PUSH4 0xA694FC3A EQ PUSH2 0x190 JUMPI DUP1 PUSH4 0xADCA9B72 EQ PUSH2 0x1A3 JUMPI DUP1 PUSH4 0xB88A802F EQ PUSH2 0x1B6 JUMPI PUSH0 DUP1 REVERT JUMPDEST DUP1 PUSH4 0x2E1A7D4D GT PUSH2 0xC3 JUMPI DUP1 PUSH4 0x2E1A7D4D EQ PUSH2 0x142 JUMPI DUP1 PUSH4 0x399080EC EQ PUSH2 0x157 JUMPI DUP1 PUSH4 0x5997BB37 EQ PUSH2 0x17F JUMPI DUP1 PUSH4 0x6AA0838F EQ PUSH2 0x187 JUMPI PUSH0 DUP1 REVERT JUMPDEST DUP1 PUSH3 0x8CC262 EQ PUSH2 0xE8 JUMPI DUP1 PUSH4 0xBD21C56 EQ PUSH2 0x10E JUMPI DUP1 PUSH4 0x211F6CE1 EQ PUSH2 0x139 JUMPI JUMPDEST PUSH0 DUP1 REVERT JUMPDEST PUSH2 0xFB PUSH2 0xF6 CALLDATASIZE PUSH1 0x4 PUSH2 0x73C JUMP JUMPDEST PUSH2 0x223 JUMP JUMPDEST PUSH1 0x40 MLOAD SWAP1 DUP2 MSTORE PUSH1 0x20 ADD JUMPDEST PUSH1 0x40 MLOAD DUP1 SWAP2 SUB SWAP1 RETURN JUMPDEST PUSH1 0x2 SLOAD PUSH2 0x121 SWAP1 PUSH1 0x1 PUSH1 0x1 PUSH1 0xA0 SHL SUB AND DUP2 JUMP JUMPDEST PUSH1 0x40 MLOAD PUSH1 0x1 PUSH1 0x1 PUSH1 0xA0 SHL SUB SWAP1 SWAP2 AND DUP2 MSTORE PUSH1 0x20 ADD PUSH2 0x105 JUMP JUMPDEST PUSH2 0xFB PUSH1 0x4 SLOAD DUP2 JUMP JUMPDEST PUSH2 0x155 PUSH2 0x150 CALLDATASIZE PUSH1 0x4 PUSH2 0x769 JUMP JUMPDEST PUSH2 0x29E JUMP JUMPDEST STOP JUMPDEST PUSH2 0xFB PUSH2 0x165 CALLDATASIZE PUSH1 0x4 PUSH2 0x73C JUMP JUMPDEST PUSH1 0x1 PUSH1 0x1 PUSH1 0xA0 SHL SUB AND PUSH0 SWAP1 DUP2 MSTORE PUSH1 0x8 PUSH1 0x20 MSTORE PUSH1 0x40 SWAP1 KECCAK256 SLOAD SWAP1 JUMP JUMPDEST PUSH2 0xFB PUSH1 0x64 DUP2 JUMP JUMPDEST PUSH2 0xFB PUSH1 0x3 SLOAD DUP2 JUMP JUMPDEST PUSH2 0x155 PUSH2 0x19E CALLDATASIZE PUSH1 0x4 PUSH2 0x769 JUMP JUMPDEST PUSH2 0x3F2 JUMP JUMPDEST PUSH1 0x1 SLOAD PUSH2 0x121 SWAP1 PUSH1 0x1 PUSH1 0x1 PUSH1 0xA0 SHL SUB AND DUP2 JUMP JUMPDEST PUSH2 0x155 PUSH2 0x564 JUMP JUMPDEST PUSH2 0xFB PUSH2 0x1CC CALLDATASIZE PUSH1 0x4 PUSH2 0x73C JUMP JUMPDEST PUSH1 0x6 PUSH1 0x20 MSTORE PUSH0 SWAP1 DUP2 MSTORE PUSH1 0x40 SWAP1 KECCAK256 SLOAD DUP2 JUMP JUMPDEST PUSH2 0xFB PUSH2 0x685 JUMP JUMPDEST PUSH2 0xFB PUSH2 0x1F3 CALLDATASIZE PUSH1 0x4 PUSH2 0x73C JUMP JUMPDEST PUSH1 0x5 PUSH1 0x20 MSTORE PUSH0 SWAP1 DUP2 MSTORE PUSH1 0x40 SWAP1 KECCAK256 SLOAD DUP2 JUMP JUMPDEST PUSH2 0xFB PUSH2 0x212 CALLDATASIZE PUSH1 0x4 PUSH2 0x73C JUMP JUMPDEST PUSH1 0x8 PUSH1 0x20 MSTORE PUSH0 SWAP1 DUP2 MSTORE PUSH1 0x40 SWAP1 KECCAK256 SLOAD DUP2 JUMP JUMPDEST PUSH1 0x1 PUSH1 0x1 PUSH1 0xA0 SHL SUB DUP2 AND PUSH0 SWAP1 DUP2 MSTORE PUSH1 0x6 PUSH1 0x20 SWAP1 DUP2 MSTORE PUSH1 0x40 DUP1 DUP4 KECCAK256 SLOAD PUSH1 0x5 SWAP1 SWAP3 MSTORE DUP3 KECCAK256 SLOAD PUSH8 0xDE0B6B3A7640000 SWAP1 PUSH2 0x258 PUSH2 0x685 JUMP JUMPDEST PUSH2 0x262 SWAP2 SWAP1 PUSH2 0x794 JUMP JUMPDEST PUSH1 0x1 PUSH1 0x1 PUSH1 0xA0 SHL SUB DUP6 AND PUSH0 SWAP1 DUP2 MSTORE PUSH1 0x8 PUSH1 0x20 MSTORE PUSH1 0x40 SWAP1 KECCAK256 SLOAD PUSH2 0x284 SWAP2 SWAP1 PUSH2 0x7A7 JUMP JUMPDEST PUSH2 0x28E SWAP2 SWAP1 PUSH2 0x7BE JUMP JUMPDEST PUSH2 0x298 SWAP2 SWAP1 PUSH2 0x7DD JUMP JUMPDEST SWAP3 SWAP2 POP POP JUMP JUMPDEST PUSH2 0x2A6 PUSH2 0x6E1 JUMP JUMPDEST CALLER PUSH2 0x2AF PUSH2 0x685 JUMP JUMPDEST PUSH1 0x4 SSTORE TIMESTAMP PUSH1 0x3 SSTORE PUSH2 0x2BF DUP2 PUSH2 0x223 JUMP JUMPDEST PUSH1 0x1 PUSH1 0x1 PUSH1 0xA0 SHL SUB DUP3 AND PUSH0 SWAP1 DUP2 MSTORE PUSH1 0x6 PUSH1 0x20 SWAP1 DUP2 MSTORE PUSH1 0x40 DUP1 DUP4 KECCAK256 SWAP4 SWAP1 SWAP4 SSTORE PUSH1 0x4 SLOAD PUSH1 0x5 SWAP1 SWAP2 MSTORE SWAP2 DUP2 KECCAK256 SWAP2 SWAP1 SWAP2 SSTORE PUSH1 0x7 DUP1 SLOAD DUP5 SWAP3 SWAP1 PUSH2 0x2FE SWAP1 DUP5 SWAP1 PUSH2 0x794 JUMP JUMPDEST SWAP1 SWAP2 SSTORE POP POP CALLER PUSH0 SWAP1 DUP2 MSTORE PUSH1 0x8 PUSH1 0x20 MSTORE PUSH1 0x40 DUP2 KECCAK256 DUP1 SLOAD DUP5 SWAP3 SWAP1 PUSH2 0x321 SWAP1 DUP5 SWAP1 PUSH2 0x794 JUMP JUMPDEST SWAP1 SWAP2 SSTORE POP POP PUSH1 0x40 MLOAD DUP3 SWAP1 CALLER SWAP1 PUSH32 0xFAF925A2782590ECE15B73BCCE340AE5A670CAABCD87AE54E330C05AB6B92CF4 SWAP1 PUSH0 SWAP1 LOG3 PUSH1 0x1 SLOAD PUSH1 0x40 MLOAD PUSH4 0xA9059CBB PUSH1 0xE0 SHL DUP2 MSTORE CALLER PUSH1 0x4 DUP3 ADD MSTORE PUSH1 0x24 DUP2 ADD DUP5 SWAP1 MSTORE PUSH0 SWAP2 PUSH1 0x1 PUSH1 0x1 PUSH1 0xA0 SHL SUB AND SWAP1 PUSH4 0xA9059CBB SWAP1 PUSH1 0x44 ADD PUSH1 0x20 PUSH1 0x40 MLOAD DUP1 DUP4 SUB DUP2 PUSH0 DUP8 GAS CALL ISZERO DUP1 ISZERO PUSH2 0x3A0 JUMPI RETURNDATASIZE PUSH0 DUP1 RETURNDATACOPY RETURNDATASIZE PUSH0 REVERT JUMPDEST POP POP POP POP PUSH1 0x40 MLOAD RETURNDATASIZE PUSH1 0x1F NOT PUSH1 0x1F DUP3 ADD AND DUP3 ADD DUP1 PUSH1 0x40 MSTORE POP DUP2 ADD SWAP1 PUSH2 0x3C4 SWAP2 SWAP1 PUSH2 0x7F0 JUMP JUMPDEST SWAP1 POP DUP1 PUSH2 0x3E4 JUMPI PUSH1 0x40 MLOAD PUSH4 0x12171D83 PUSH1 0xE3 SHL DUP2 MSTORE PUSH1 0x4 ADD PUSH1 0x40 MLOAD DUP1 SWAP2 SUB SWAP1 REVERT JUMPDEST POP POP PUSH2 0x3EF PUSH1 0x1 PUSH0 SSTORE JUMP JUMPDEST POP JUMP JUMPDEST CALLER PUSH2 0x3FB PUSH2 0x685 JUMP JUMPDEST PUSH1 0x4 SSTORE TIMESTAMP PUSH1 0x3 SSTORE PUSH2 0x40B DUP2 PUSH2 0x223 JUMP JUMPDEST PUSH1 0x1 PUSH1 0x1 PUSH1 0xA0 SHL SUB DUP3 AND PUSH0 SWAP1 DUP2 MSTORE PUSH1 0x6 PUSH1 0x20 SWAP1 DUP2 MSTORE PUSH1 0x40 DUP1 DUP4 KECCAK256 SWAP4 SWAP1 SWAP4 SSTORE PUSH1 0x4 SLOAD PUSH1 0x5 SWAP1 SWAP2 MSTORE SWAP2 SWAP1 KECCAK256 SSTORE PUSH2 0x43D PUSH2 0x6E1 JUMP JUMPDEST DUP2 DUP1 PUSH0 SUB PUSH2 0x45E JUMPI PUSH1 0x40 MLOAD PUSH4 0xF45911F PUSH1 0xE4 SHL DUP2 MSTORE PUSH1 0x4 ADD PUSH1 0x40 MLOAD DUP1 SWAP2 SUB SWAP1 REVERT JUMPDEST DUP3 PUSH1 0x7 PUSH0 DUP3 DUP3 SLOAD PUSH2 0x46F SWAP2 SWAP1 PUSH2 0x7DD JUMP JUMPDEST SWAP1 SWAP2 SSTORE POP POP CALLER PUSH0 SWAP1 DUP2 MSTORE PUSH1 0x8 PUSH1 0x20 MSTORE PUSH1 0x40 DUP2 KECCAK256 DUP1 SLOAD DUP6 SWAP3 SWAP1 PUSH2 0x492 SWAP1 DUP5 SWAP1 PUSH2 0x7DD JUMP JUMPDEST SWAP1 SWAP2 SSTORE POP POP PUSH1 0x40 MLOAD DUP4 SWAP1 CALLER SWAP1 PUSH32 0x9E71BC8EEA02A63969F509818F2DAFB9254532904319F9DBDA79B67BD34A5F3D SWAP1 PUSH0 SWAP1 LOG3 PUSH1 0x1 SLOAD PUSH1 0x40 MLOAD PUSH4 0xA9059CBB PUSH1 0xE0 SHL DUP2 MSTORE ADDRESS PUSH1 0x4 DUP3 ADD MSTORE PUSH1 0x24 DUP2 ADD DUP6 SWAP1 MSTORE PUSH0 SWAP2 PUSH1 0x1 PUSH1 0x1 PUSH1 0xA0 SHL SUB AND SWAP1 PUSH4 0xA9059CBB SWAP1 PUSH1 0x44 ADD PUSH1 0x20 PUSH1 0x40 MLOAD DUP1 DUP4 SUB DUP2 PUSH0 DUP8 GAS CALL ISZERO DUP1 ISZERO PUSH2 0x511 JUMPI RETURNDATASIZE PUSH0 DUP1 RETURNDATACOPY RETURNDATASIZE PUSH0 REVERT JUMPDEST POP POP POP POP PUSH1 0x40 MLOAD RETURNDATASIZE PUSH1 0x1F NOT PUSH1 0x1F DUP3 ADD AND DUP3 ADD DUP1 PUSH1 0x40 MSTORE POP DUP2 ADD SWAP1 PUSH2 0x535 SWAP2 SWAP1 PUSH2 0x7F0 JUMP JUMPDEST SWAP1 POP DUP1 PUSH2 0x555 JUMPI PUSH1 0x40 MLOAD PUSH4 0x12171D83 PUSH1 0xE3 SHL DUP2 MSTORE PUSH1 0x4 ADD PUSH1 0x40 MLOAD DUP1 SWAP2 SUB SWAP1 REVERT JUMPDEST POP POP PUSH2 0x560 PUSH1 0x1 PUSH0 SSTORE JUMP JUMPDEST POP POP JUMP JUMPDEST PUSH2 0x56C PUSH2 0x6E1 JUMP JUMPDEST CALLER PUSH2 0x575 PUSH2 0x685 JUMP JUMPDEST PUSH1 0x4 SSTORE TIMESTAMP PUSH1 0x3 SSTORE PUSH2 0x585 DUP2 PUSH2 0x223 JUMP JUMPDEST PUSH1 0x1 PUSH1 0x1 PUSH1 0xA0 SHL SUB DUP3 AND PUSH0 SWAP1 DUP2 MSTORE PUSH1 0x6 PUSH1 0x20 DUP2 DUP2 MSTORE PUSH1 0x40 DUP1 DUP5 KECCAK256 SWAP5 SWAP1 SWAP5 SSTORE PUSH1 0x4 SLOAD PUSH1 0x5 DUP3 MSTORE DUP5 DUP5 KECCAK256 SSTORE CALLER DUP1 DUP5 MSTORE SWAP2 SWAP1 MSTORE DUP3 DUP3 KECCAK256 DUP1 SLOAD SWAP1 DUP4 SWAP1 SSTORE SWAP3 MLOAD DUP4 SWAP3 PUSH32 0xFC30CDDEA38E2BF4D6EA7D3F9ED3B6AD7F176419F4963BD81318067A4AEE73FE SWAP2 LOG3 PUSH1 0x2 SLOAD PUSH1 0x40 MLOAD PUSH4 0xA9059CBB PUSH1 0xE0 SHL DUP2 MSTORE CALLER PUSH1 0x4 DUP3 ADD MSTORE PUSH1 0x24 DUP2 ADD DUP4 SWAP1 MSTORE PUSH0 SWAP2 PUSH1 0x1 PUSH1 0x1 PUSH1 0xA0 SHL SUB AND SWAP1 PUSH4 0xA9059CBB SWAP1 PUSH1 0x44 ADD PUSH1 0x20 PUSH1 0x40 MLOAD DUP1 DUP4 SUB DUP2 PUSH0 DUP8 GAS CALL ISZERO DUP1 ISZERO PUSH2 0x633 JUMPI RETURNDATASIZE PUSH0 DUP1 RETURNDATACOPY RETURNDATASIZE PUSH0 REVERT JUMPDEST POP POP POP POP PUSH1 0x40 MLOAD RETURNDATASIZE PUSH1 0x1F NOT PUSH1 0x1F DUP3 ADD AND DUP3 ADD DUP1 PUSH1 0x40 MSTORE POP DUP2 ADD SWAP1 PUSH2 0x657 SWAP2 SWAP1 PUSH2 0x7F0 JUMP JUMPDEST SWAP1 POP DUP1 PUSH2 0x677 JUMPI PUSH1 0x40 MLOAD PUSH4 0x12171D83 PUSH1 0xE3 SHL DUP2 MSTORE PUSH1 0x4 ADD PUSH1 0x40 MLOAD DUP1 SWAP2 SUB SWAP1 REVERT JUMPDEST POP POP POP PUSH2 0x683 PUSH1 0x1 PUSH0 SSTORE JUMP JUMPDEST JUMP JUMPDEST PUSH0 PUSH1 0x7 SLOAD PUSH0 SUB PUSH2 0x696 JUMPI POP PUSH1 0x4 SLOAD SWAP1 JUMP JUMPDEST PUSH1 0x7 SLOAD PUSH1 0x64 PUSH1 0x3 SLOAD TIMESTAMP PUSH2 0x6A9 SWAP2 SWAP1 PUSH2 0x794 JUMP JUMPDEST PUSH2 0x6B3 SWAP2 SWAP1 PUSH2 0x7A7 JUMP JUMPDEST PUSH2 0x6C5 SWAP1 PUSH8 0xDE0B6B3A7640000 PUSH2 0x7A7 JUMP JUMPDEST PUSH2 0x6CF SWAP2 SWAP1 PUSH2 0x7BE JUMP JUMPDEST PUSH1 0x4 SLOAD PUSH2 0x6DC SWAP2 SWAP1 PUSH2 0x7DD JUMP JUMPDEST SWAP1 POP SWAP1 JUMP JUMPDEST PUSH1 0x2 PUSH0 SLOAD SUB PUSH2 0x736 JUMPI PUSH1 0x40 MLOAD PUSH3 0x461BCD PUSH1 0xE5 SHL DUP2 MSTORE PUSH1 0x20 PUSH1 0x4 DUP3 ADD MSTORE PUSH1 0x1F PUSH1 0x24 DUP3 ADD MSTORE PUSH32 0x5265656E7472616E637947756172643A207265656E7472616E742063616C6C00 PUSH1 0x44 DUP3 ADD MSTORE PUSH1 0x64 ADD PUSH1 0x40 MLOAD DUP1 SWAP2 SUB SWAP1 REVERT JUMPDEST PUSH1 0x2 PUSH0 SSTORE JUMP JUMPDEST PUSH0 PUSH1 0x20 DUP3 DUP5 SUB SLT ISZERO PUSH2 0x74C JUMPI PUSH0 DUP1 REVERT JUMPDEST DUP2 CALLDATALOAD PUSH1 0x1 PUSH1 0x1 PUSH1 0xA0 SHL SUB DUP2 AND DUP2 EQ PUSH2 0x762 JUMPI PUSH0 DUP1 REVERT JUMPDEST SWAP4 SWAP3 POP POP POP JUMP JUMPDEST PUSH0 PUSH1 0x20 DUP3 DUP5 SUB SLT ISZERO PUSH2 0x779 JUMPI PUSH0 DUP1 REVERT JUMPDEST POP CALLDATALOAD SWAP2 SWAP1 POP JUMP JUMPDEST PUSH4 0x4E487B71 PUSH1 0xE0 SHL PUSH0 MSTORE PUSH1 0x11 PUSH1 0x4 MSTORE PUSH1 0x24 PUSH0 REVERT JUMPDEST DUP2 DUP2 SUB DUP2 DUP2 GT ISZERO PUSH2 0x298 JUMPI PUSH2 0x298 PUSH2 0x780 JUMP JUMPDEST DUP1 DUP3 MUL DUP2 ISZERO DUP3 DUP3 DIV DUP5 EQ OR PUSH2 0x298 JUMPI PUSH2 0x298 PUSH2 0x780 JUMP JUMPDEST PUSH0 DUP3 PUSH2 0x7D8 JUMPI PUSH4 0x4E487B71 PUSH1 0xE0 SHL PUSH0 MSTORE PUSH1 0x12 PUSH1 0x4 MSTORE PUSH1 0x24 PUSH0 REVERT JUMPDEST POP DIV SWAP1 JUMP JUMPDEST DUP1 DUP3 ADD DUP1 DUP3 GT ISZERO PUSH2 0x298 JUMPI PUSH2 0x298 PUSH2 0x780 JUMP JUMPDEST PUSH0 PUSH1 0x20 DUP3 DUP5 SUB SLT ISZERO PUSH2 0x800 JUMPI PUSH0 DUP1 REVERT JUMPDEST DUP2 MLOAD DUP1 ISZERO ISZERO DUP2 EQ PUSH2 0x762 JUMPI PUSH0 DUP1 REVERT INVALID LOG2 PUSH5 0x6970667358 0x22 SLT KECCAK256 JUMPDEST 0xEF 0xF8 0x4C 0xEC 0xF9 PUSH27 0x9B8B63F6F0EDCB1BC1375AC9BADD612C2C4967A341698EE5D36473 PUSH16 0x6C634300081500330000000000000000 "
		},
		"gasEstimates": {
			"creation": {
				"codeDepositCost": "423400",
				"executionCost": "infinite",
				"totalCost": "infinite"
			},
			"external": {
				"REWARD_RATE()": "250",
				"claimReward()": "infinite",
				"earned(address)": "infinite",
				"getStaked(address)": "2533",
				"rewardPerToken()": "infinite",
				"s_balaces(address)": "2558",
				"s_lastUpdateTime()": "2372",
				"s_rewarPerTokenStored()": "2351",
				"s_rewards(address)": "2492",
				"s_rewardsToken()": "2382",
				"s_stakingToken()": "2381",
				"s_userRewardPerTokenPaid(address)": "2536",
				"stake(uint256)": "infinite",
				"withdraw(uint256)": "infinite"
			}
		},
		"methodIdentifiers": {
			"REWARD_RATE()": "5997bb37",
			"claimReward()": "b88a802f",
			"earned(address)": "008cc262",
			"getStaked(address)": "399080ec",
			"rewardPerToken()": "cd3daf9d",
			"s_balaces(address)": "f43630bd",
			"s_lastUpdateTime()": "6aa0838f",
			"s_rewarPerTokenStored()": "211f6ce1",
			"s_rewards(address)": "bea08151",
			"s_rewardsToken()": "0bd21c56",
			"s_stakingToken()": "adca9b72",
			"s_userRewardPerTokenPaid(address)": "f245ace4",
			"stake(uint256)": "a694fc3a",
			"withdraw(uint256)": "2e1a7d4d"
		}
	},
	"abi": [
		{
			"inputs": [
				{
					"internalType": "address",
					"name": "stakingToken",
					"type": "address"
				},
				{
					"internalType": "address",
					"name": "rewardsToken",
					"type": "address"
				}
			],
			"stateMutability": "nonpayable",
			"type": "constructor"
		},
		{
			"inputs": [],
			"name": "NeedsMoreThanZero",
			"type": "error"
		},
		{
			"inputs": [],
			"name": "TransferFailed",
			"type": "error"
		},
		{
			"anonymous": false,
			"inputs": [
				{
					"indexed": true,
					"internalType": "address",
					"name": "user",
					"type": "address"
				},
				{
					"indexed": true,
					"internalType": "uint256",
					"name": "amount",
					"type": "uint256"
				}
			],
			"name": "RewardsClaimed",
			"type": "event"
		},
		{
			"anonymous": false,
			"inputs": [
				{
					"indexed": true,
					"internalType": "address",
					"name": "user",
					"type": "address"
				},
				{
					"indexed": true,
					"internalType": "uint256",
					"name": "amount",
					"type": "uint256"
				}
			],
			"name": "Staked",
			"type": "event"
		},
		{
			"anonymous": false,
			"inputs": [
				{
					"indexed": true,
					"internalType": "address",
					"name": "user",
					"type": "address"
				},
				{
					"indexed": true,
					"internalType": "uint256",
					"name": "amount",
					"type": "uint256"
				}
			],
			"name": "withdrewStake",
			"type": "event"
		},
		{
			"inputs": [],
			"name": "REWARD_RATE",
			"outputs": [
				{
					"internalType": "uint256",
					"name": "",
					"type": "uint256"
				}
			],
			"stateMutability": "view",
			"type": "function"
		},
		{
			"inputs": [],
			"name": "claimReward",
			"outputs": [],
			"stateMutability": "nonpayable",
			"type": "function"
		},
		{
			"inputs": [
				{
					"internalType": "address",
					"name": "account",
					"type": "address"
				}
			],
			"name": "earned",
			"outputs": [
				{
					"internalType": "uint256",
					"name": "",
					"type": "uint256"
				}
			],
			"stateMutability": "view",
			"type": "function"
		},
		{
			"inputs": [
				{
					"internalType": "address",
					"name": "account",
					"type": "address"
				}
			],
			"name": "getStaked",
			"outputs": [
				{
					"internalType": "uint256",
					"name": "",
					"type": "uint256"
				}
			],
			"stateMutability": "view",
			"type": "function"
		},
		{
			"inputs": [],
			"name": "rewardPerToken",
			"outputs": [
				{
					"internalType": "uint256",
					"name": "",
					"type": "uint256"
				}
			],
			"stateMutability": "view",
			"type": "function"
		},
		{
			"inputs": [
				{
					"internalType": "address",
					"name": "",
					"type": "address"
				}
			],
			"name": "s_balaces",
			"outputs": [
				{
					"internalType": "uint256",
					"name": "",
					"type": "uint256"
				}
			],
			"stateMutability": "view",
			"type": "function"
		},
		{
			"inputs": [],
			"name": "s_lastUpdateTime",
			"outputs": [
				{
					"internalType": "uint256",
					"name": "",
					"type": "uint256"
				}
			],
			"stateMutability": "view",
			"type": "function"
		},
		{
			"inputs": [],
			"name": "s_rewarPerTokenStored",
			"outputs": [
				{
					"internalType": "uint256",
					"name": "",
					"type": "uint256"
				}
			],
			"stateMutability": "view",
			"type": "function"
		},
		{
			"inputs": [
				{
					"internalType": "address",
					"name": "",
					"type": "address"
				}
			],
			"name": "s_rewards",
			"outputs": [
				{
					"internalType": "uint256",
					"name": "",
					"type": "uint256"
				}
			],
			"stateMutability": "view",
			"type": "function"
		},
		{
			"inputs": [],
			"name": "s_rewardsToken",
			"outputs": [
				{
					"internalType": "contract IERC20",
					"name": "",
					"type": "address"
				}
			],
			"stateMutability": "view",
			"type": "function"
		},
		{
			"inputs": [],
			"name": "s_stakingToken",
			"outputs": [
				{
					"internalType": "contract IERC20",
					"name": "",
					"type": "address"
				}
			],
			"stateMutability": "view",
			"type": "function"
		},
		{
			"inputs": [
				{
					"internalType": "address",
					"name": "",
					"type": "address"
				}
			],
			"name": "s_userRewardPerTokenPaid",
			"outputs": [
				{
					"internalType": "uint256",
					"name": "",
					"type": "uint256"
				}
			],
			"stateMutability": "view",
			"type": "function"
		},
		{
			"inputs": [
				{
					"internalType": "uint256",
					"name": "amount",
					"type": "uint256"
				}
			],
			"name": "stake",
			"outputs": [],
			"stateMutability": "nonpayable",
			"type": "function"
		},
		{
			"inputs": [
				{
					"internalType": "uint256",
					"name": "amount",
					"type": "uint256"
				}
			],
			"name": "withdraw",
			"outputs": [],
			"stateMutability": "nonpayable",
			"type": "function"
		}
	]
}