{
	"contracts/Dapps/Staking.sol": {
		"staking": {
			"abi": [
				{
					"inputs": [
						{
							"internalType": "address",
							"name": "stakingToken",
							"type": "address"
						},
						{
							"internalType": "address",
							"name": "rewardsToken",
							"type": "address"
						}
					],
					"stateMutability": "nonpayable",
					"type": "constructor"
				},
				{
					"inputs": [],
					"name": "NeedsMoreThanZero",
					"type": "error"
				},
				{
					"inputs": [],
					"name": "TransferFailed",
					"type": "error"
				},
				{
					"anonymous": false,
					"inputs": [
						{
							"indexed": true,
							"internalType": "address",
							"name": "user",
							"type": "address"
						},
						{
							"indexed": true,
							"internalType": "uint256",
							"name": "amount",
							"type": "uint256"
						}
					],
					"name": "RewardsClaimed",
					"type": "event"
				},
				{
					"anonymous": false,
					"inputs": [
						{
							"indexed": true,
							"internalType": "address",
							"name": "user",
							"type": "address"
						},
						{
							"indexed": true,
							"internalType": "uint256",
							"name": "amount",
							"type": "uint256"
						}
					],
					"name": "Staked",
					"type": "event"
				},
				{
					"anonymous": false,
					"inputs": [
						{
							"indexed": true,
							"internalType": "address",
							"name": "user",
							"type": "address"
						},
						{
							"indexed": true,
							"internalType": "uint256",
							"name": "amount",
							"type": "uint256"
						}
					],
					"name": "withdrewStake",
					"type": "event"
				},
				{
					"inputs": [],
					"name": "REWARD_RATE",
					"outputs": [
						{
							"internalType": "uint256",
							"name": "",
							"type": "uint256"
						}
					],
					"stateMutability": "view",
					"type": "function"
				},
				{
					"inputs": [],
					"name": "claimReward",
					"outputs": [],
					"stateMutability": "nonpayable",
					"type": "function"
				},
				{
					"inputs": [
						{
							"internalType": "address",
							"name": "account",
							"type": "address"
						}
					],
					"name": "earned",
					"outputs": [
						{
							"internalType": "uint256",
							"name": "",
							"type": "uint256"
						}
					],
					"stateMutability": "view",
					"type": "function"
				},
				{
					"inputs": [
						{
							"internalType": "address",
							"name": "account",
							"type": "address"
						}
					],
					"name": "getStaked",
					"outputs": [
						{
							"internalType": "uint256",
							"name": "",
							"type": "uint256"
						}
					],
					"stateMutability": "view",
					"type": "function"
				},
				{
					"inputs": [],
					"name": "rewardPerToken",
					"outputs": [
						{
							"internalType": "uint256",
							"name": "",
							"type": "uint256"
						}
					],
					"stateMutability": "view",
					"type": "function"
				},
				{
					"inputs": [
						{
							"internalType": "address",
							"name": "",
							"type": "address"
						}
					],
					"name": "s_balaces",
					"outputs": [
						{
							"internalType": "uint256",
							"name": "",
							"type": "uint256"
						}
					],
					"stateMutability": "view",
					"type": "function"
				},
				{
					"inputs": [],
					"name": "s_lastUpdateTime",
					"outputs": [
						{
							"internalType": "uint256",
							"name": "",
							"type": "uint256"
						}
					],
					"stateMutability": "view",
					"type": "function"
				},
				{
					"inputs": [],
					"name": "s_rewarPerTokenStored",
					"outputs": [
						{
							"internalType": "uint256",
							"name": "",
							"type": "uint256"
						}
					],
					"stateMutability": "view",
					"type": "function"
				},
				{
					"inputs": [
						{
							"internalType": "address",
							"name": "",
							"type": "address"
						}
					],
					"name": "s_rewards",
					"outputs": [
						{
							"internalType": "uint256",
							"name": "",
							"type": "uint256"
						}
					],
					"stateMutability": "view",
					"type": "function"
				},
				{
					"inputs": [],
					"name": "s_rewardsToken",
					"outputs": [
						{
							"internalType": "contract IERC20",
							"name": "",
							"type": "address"
						}
					],
					"stateMutability": "view",
					"type": "function"
				},
				{
					"inputs": [],
					"name": "s_stakingToken",
					"outputs": [
						{
							"internalType": "contract IERC20",
							"name": "",
							"type": "address"
						}
					],
					"stateMutability": "view",
					"type": "function"
				},
				{
					"inputs": [
						{
							"internalType": "address",
							"name": "",
							"type": "address"
						}
					],
					"name": "s_userRewardPerTokenPaid",
					"outputs": [
						{
							"internalType": "uint256",
							"name": "",
							"type": "uint256"
						}
					],
					"stateMutability": "view",
					"type": "function"
				},
				{
					"inputs": [
						{
							"internalType": "uint256",
							"name": "amount",
							"type": "uint256"
						}
					],
					"name": "stake",
					"outputs": [],
					"stateMutability": "nonpayable",
					"type": "function"
				},
				{
					"inputs": [
						{
							"internalType": "uint256",
							"name": "amount",
							"type": "uint256"
						}
					],
					"name": "withdraw",
					"outputs": [],
					"stateMutability": "nonpayable",
					"type": "function"
				}
			],
			"devdoc": {
				"kind": "dev",
				"methods": {},
				"version": 1
			},
			"evm": {
				"assembly": "    /* \"contracts/Dapps/Staking.sol\":288:3596  contract staking is ReentrancyGuard{ ... */\n  mstore(0x40, 0x80)\n    /* \"contracts/Dapps/Staking.sol\":997:1183  constructor(address stakingToken, address rewardsToken) {... */\n  callvalue\n  dup1\n  iszero\n  tag_1\n  jumpi\n  0x00\n  dup1\n  revert\ntag_1:\n  pop\n  mload(0x40)\n  sub(codesize, bytecodeSize)\n  dup1\n  bytecodeSize\n  dup4\n  codecopy\n  dup2\n  add\n  0x40\n  dup2\n  swap1\n  mstore\n  tag_2\n  swap2\n  tag_3\n  jump\t// in\ntag_2:\n    /* \"@openzeppelin/contracts/security/ReentrancyGuard.sol\":1716:1717  1 */\n  0x01\n    /* \"@openzeppelin/contracts/security/ReentrancyGuard.sol\":1821:1828  _status */\n  0x00\n    /* \"@openzeppelin/contracts/security/ReentrancyGuard.sol\":1821:1843  _status = _NOT_ENTERED */\n  dup2\n  swap1\n  sstore\n    /* \"contracts/Dapps/Staking.sol\":1092:1129  s_stakingToken = IERC20(stakingToken) */\n  dup1\n  sload\n  sub(shl(0xa0, 0x01), 0x01)\n  swap4\n  dup5\n  and\n  not(sub(shl(0xa0, 0x01), 0x01))\n  swap2\n  dup3\n  and\n  or\n  swap1\n  swap2\n  sstore\n    /* \"contracts/Dapps/Staking.sol\":1139:1153  s_rewardsToken */\n  0x02\n    /* \"contracts/Dapps/Staking.sol\":1139:1176  s_rewardsToken = IERC20(rewardsToken) */\n  dup1\n  sload\n  swap3\n  swap1\n  swap4\n  and\n  swap2\n  and\n  or\n  swap1\n  sstore\n    /* \"contracts/Dapps/Staking.sol\":288:3596  contract staking is ReentrancyGuard{ ... */\n  jump(tag_10)\n    /* \"#utility.yul\":14:191   */\ntag_9:\n    /* \"#utility.yul\":93:106   */\n  dup1\n  mload\n  sub(shl(0xa0, 0x01), 0x01)\n    /* \"#utility.yul\":135:166   */\n  dup2\n  and\n    /* \"#utility.yul\":125:167   */\n  dup2\n  eq\n    /* \"#utility.yul\":115:185   */\n  tag_12\n  jumpi\n    /* \"#utility.yul\":181:182   */\n  0x00\n    /* \"#utility.yul\":178:179   */\n  dup1\n    /* \"#utility.yul\":171:183   */\n  revert\n    /* \"#utility.yul\":115:185   */\ntag_12:\n    /* \"#utility.yul\":14:191   */\n  swap2\n  swap1\n  pop\n  jump\t// out\n    /* \"#utility.yul\":196:489   */\ntag_3:\n    /* \"#utility.yul\":275:281   */\n  0x00\n    /* \"#utility.yul\":283:289   */\n  dup1\n    /* \"#utility.yul\":336:338   */\n  0x40\n    /* \"#utility.yul\":324:333   */\n  dup4\n    /* \"#utility.yul\":315:322   */\n  dup6\n    /* \"#utility.yul\":311:334   */\n  sub\n    /* \"#utility.yul\":307:339   */\n  slt\n    /* \"#utility.yul\":304:356   */\n  iszero\n  tag_14\n  jumpi\n    /* \"#utility.yul\":352:353   */\n  0x00\n    /* \"#utility.yul\":349:350   */\n  dup1\n    /* \"#utility.yul\":342:354   */\n  revert\n    /* \"#utility.yul\":304:356   */\ntag_14:\n    /* \"#utility.yul\":375:415   */\n  tag_15\n    /* \"#utility.yul\":405:414   */\n  dup4\n    /* \"#utility.yul\":375:415   */\n  tag_9\n  jump\t// in\ntag_15:\n    /* \"#utility.yul\":365:415   */\n  swap2\n  pop\n    /* \"#utility.yul\":434:483   */\n  tag_16\n    /* \"#utility.yul\":479:481   */\n  0x20\n    /* \"#utility.yul\":468:477   */\n  dup5\n    /* \"#utility.yul\":464:482   */\n  add\n    /* \"#utility.yul\":434:483   */\n  tag_9\n  jump\t// in\ntag_16:\n    /* \"#utility.yul\":424:483   */\n  swap1\n  pop\n    /* \"#utility.yul\":196:489   */\n  swap3\n  pop\n  swap3\n  swap1\n  pop\n  jump\t// out\ntag_10:\n    /* \"contracts/Dapps/Staking.sol\":288:3596  contract staking is ReentrancyGuard{ ... */\n  dataSize(sub_0)\n  dup1\n  dataOffset(sub_0)\n  0x00\n  codecopy\n  0x00\n  return\nstop\n\nsub_0: assembly {\n        /* \"contracts/Dapps/Staking.sol\":288:3596  contract staking is ReentrancyGuard{ ... */\n      mstore(0x40, 0x80)\n      callvalue\n      dup1\n      iszero\n      tag_1\n      jumpi\n      0x00\n      dup1\n      revert\n    tag_1:\n      pop\n      jumpi(tag_2, lt(calldatasize, 0x04))\n      shr(0xe0, calldataload(0x00))\n      dup1\n      0xa694fc3a\n      gt\n      tag_17\n      jumpi\n      dup1\n      0xbea08151\n      gt\n      tag_18\n      jumpi\n      dup1\n      0xbea08151\n      eq\n      tag_13\n      jumpi\n      dup1\n      0xcd3daf9d\n      eq\n      tag_14\n      jumpi\n      dup1\n      0xf245ace4\n      eq\n      tag_15\n      jumpi\n      dup1\n      0xf43630bd\n      eq\n      tag_16\n      jumpi\n      0x00\n      dup1\n      revert\n    tag_18:\n      dup1\n      0xa694fc3a\n      eq\n      tag_10\n      jumpi\n      dup1\n      0xadca9b72\n      eq\n      tag_11\n      jumpi\n      dup1\n      0xb88a802f\n      eq\n      tag_12\n      jumpi\n      0x00\n      dup1\n      revert\n    tag_17:\n      dup1\n      0x2e1a7d4d\n      gt\n      tag_19\n      jumpi\n      dup1\n      0x2e1a7d4d\n      eq\n      tag_6\n      jumpi\n      dup1\n      0x399080ec\n      eq\n      tag_7\n      jumpi\n      dup1\n      0x5997bb37\n      eq\n      tag_8\n      jumpi\n      dup1\n      0x6aa0838f\n      eq\n      tag_9\n      jumpi\n      0x00\n      dup1\n      revert\n    tag_19:\n      dup1\n      0x8cc262\n      eq\n      tag_3\n      jumpi\n      dup1\n      0x0bd21c56\n      eq\n      tag_4\n      jumpi\n      dup1\n      0x211f6ce1\n      eq\n      tag_5\n      jumpi\n    tag_2:\n      0x00\n      dup1\n      revert\n        /* \"contracts/Dapps/Staking.sol\":1694:2001  function earned(address account) public view returns(uint256) {... */\n    tag_3:\n      tag_20\n      tag_21\n      calldatasize\n      0x04\n      tag_22\n      jump\t// in\n    tag_21:\n      tag_23\n      jump\t// in\n    tag_20:\n      mload(0x40)\n        /* \"#utility.yul\":474:499   */\n      swap1\n      dup2\n      mstore\n        /* \"#utility.yul\":462:464   */\n      0x20\n        /* \"#utility.yul\":447:465   */\n      add\n        /* \"contracts/Dapps/Staking.sol\":1694:2001  function earned(address account) public view returns(uint256) {... */\n    tag_24:\n      mload(0x40)\n      dup1\n      swap2\n      sub\n      swap1\n      return\n        /* \"contracts/Dapps/Staking.sol\":384:412  IERC20 public s_rewardsToken */\n    tag_4:\n      sload(0x02)\n      tag_26\n      swap1\n      sub(shl(0xa0, 0x01), 0x01)\n      and\n      dup2\n      jump\n    tag_26:\n      mload(0x40)\n      sub(shl(0xa0, 0x01), 0x01)\n        /* \"#utility.yul\":688:743   */\n      swap1\n      swap2\n      and\n        /* \"#utility.yul\":670:744   */\n      dup2\n      mstore\n        /* \"#utility.yul\":658:660   */\n      0x20\n        /* \"#utility.yul\":643:661   */\n      add\n        /* \"contracts/Dapps/Staking.sol\":384:412  IERC20 public s_rewardsToken */\n      tag_24\n        /* \"#utility.yul\":510:750   */\n      jump\n        /* \"contracts/Dapps/Staking.sol\":542:578  uint256 public s_rewarPerTokenStored */\n    tag_5:\n      tag_20\n      sload(0x04)\n      dup2\n      jump\n        /* \"contracts/Dapps/Staking.sol\":2372:2718  function withdraw(uint256 amount) external nonReentrant updateReward(msg.sender) {... */\n    tag_6:\n      tag_33\n      tag_34\n      calldatasize\n      0x04\n      tag_35\n      jump\t// in\n    tag_34:\n      tag_36\n      jump\t// in\n    tag_33:\n      stop\n        /* \"contracts/Dapps/Staking.sol\":3486:3594  function getStaked(address account) public view returns (uint256) {... */\n    tag_7:\n      tag_20\n      tag_38\n      calldatasize\n      0x04\n      tag_22\n      jump\t// in\n    tag_38:\n      sub(shl(0xa0, 0x01), 0x01)\n        /* \"contracts/Dapps/Staking.sol\":3569:3587  s_balaces[account] */\n      and\n        /* \"contracts/Dapps/Staking.sol\":3543:3550  uint256 */\n      0x00\n        /* \"contracts/Dapps/Staking.sol\":3569:3587  s_balaces[account] */\n      swap1\n      dup2\n      mstore\n        /* \"contracts/Dapps/Staking.sol\":3569:3578  s_balaces */\n      0x08\n        /* \"contracts/Dapps/Staking.sol\":3569:3587  s_balaces[account] */\n      0x20\n      mstore\n      0x40\n      swap1\n      keccak256\n      sload\n      swap1\n        /* \"contracts/Dapps/Staking.sol\":3486:3594  function getStaked(address account) public view returns (uint256) {... */\n      jump\n        /* \"contracts/Dapps/Staking.sol\":460:499  uint256 public constant REWARD_RATE=100 */\n    tag_8:\n      tag_20\n        /* \"contracts/Dapps/Staking.sol\":496:499  100 */\n      0x64\n        /* \"contracts/Dapps/Staking.sol\":460:499  uint256 public constant REWARD_RATE=100 */\n      dup2\n      jump\n        /* \"contracts/Dapps/Staking.sol\":505:536  uint256 public s_lastUpdateTime */\n    tag_9:\n      tag_20\n      sload(0x03)\n      dup2\n      jump\n        /* \"contracts/Dapps/Staking.sol\":2008:2366  function stake(uint256 amount) external updateReward(msg.sender) nonReentrant moreThanZero(amount) {... */\n    tag_10:\n      tag_33\n      tag_48\n      calldatasize\n      0x04\n      tag_35\n      jump\t// in\n    tag_48:\n      tag_49\n      jump\t// in\n        /* \"contracts/Dapps/Staking.sol\":330:358  IERC20 public s_stakingToken */\n    tag_11:\n      sload(0x01)\n      tag_26\n      swap1\n      sub(shl(0xa0, 0x01), 0x01)\n      and\n      dup2\n      jump\n        /* \"contracts/Dapps/Staking.sol\":2724:3072  function claimReward() external  nonReentrant updateReward(msg.sender) {... */\n    tag_12:\n      tag_33\n      tag_54\n      jump\t// in\n        /* \"contracts/Dapps/Staking.sol\":651:695  mapping(address => uint256) public s_rewards */\n    tag_13:\n      tag_20\n      tag_56\n      calldatasize\n      0x04\n      tag_22\n      jump\t// in\n    tag_56:\n      mstore(0x20, 0x06)\n      0x00\n      swap1\n      dup2\n      mstore\n      0x40\n      swap1\n      keccak256\n      sload\n      dup2\n      jump\n        /* \"contracts/Dapps/Staking.sol\":1273:1688  function rewardPerToken() public view returns(uint256) {... */\n    tag_14:\n      tag_20\n      tag_60\n      jump\t// in\n        /* \"contracts/Dapps/Staking.sol\":586:645  mapping(address => uint256) public s_userRewardPerTokenPaid */\n    tag_15:\n      tag_20\n      tag_63\n      calldatasize\n      0x04\n      tag_22\n      jump\t// in\n    tag_63:\n      mstore(0x20, 0x05)\n      0x00\n      swap1\n      dup2\n      mstore\n      0x40\n      swap1\n      keccak256\n      sload\n      dup2\n      jump\n        /* \"contracts/Dapps/Staking.sol\":738:782  mapping(address => uint256) public s_balaces */\n    tag_16:\n      tag_20\n      tag_67\n      calldatasize\n      0x04\n      tag_22\n      jump\t// in\n    tag_67:\n      mstore(0x20, 0x08)\n      0x00\n      swap1\n      dup2\n      mstore\n      0x40\n      swap1\n      keccak256\n      sload\n      dup2\n      jump\n        /* \"contracts/Dapps/Staking.sol\":1694:2001  function earned(address account) public view returns(uint256) {... */\n    tag_23:\n      sub(shl(0xa0, 0x01), 0x01)\n        /* \"contracts/Dapps/Staking.sol\":1858:1876  s_rewards[account] */\n      dup2\n      and\n        /* \"contracts/Dapps/Staking.sol\":1747:1754  uint256 */\n      0x00\n        /* \"contracts/Dapps/Staking.sol\":1858:1876  s_rewards[account] */\n      swap1\n      dup2\n      mstore\n        /* \"contracts/Dapps/Staking.sol\":1858:1867  s_rewards */\n      0x06\n        /* \"contracts/Dapps/Staking.sol\":1858:1876  s_rewards[account] */\n      0x20\n      swap1\n      dup2\n      mstore\n      0x40\n      dup1\n      dup4\n      keccak256\n      sload\n        /* \"contracts/Dapps/Staking.sol\":1814:1838  s_userRewardPerTokenPaid */\n      0x05\n        /* \"contracts/Dapps/Staking.sol\":1814:1847  s_userRewardPerTokenPaid[account] */\n      swap1\n      swap3\n      mstore\n      dup3\n      keccak256\n      sload\n        /* \"contracts/Dapps/Staking.sol\":1850:1854  1e18 */\n      0x0de0b6b3a7640000\n      swap1\n        /* \"contracts/Dapps/Staking.sol\":1795:1811  rewardPerToken() */\n      tag_71\n        /* \"contracts/Dapps/Staking.sol\":1795:1809  rewardPerToken */\n      tag_60\n        /* \"contracts/Dapps/Staking.sol\":1795:1811  rewardPerToken() */\n      jump\t// in\n    tag_71:\n        /* \"contracts/Dapps/Staking.sol\":1795:1847  rewardPerToken() - s_userRewardPerTokenPaid[account] */\n      tag_72\n      swap2\n      swap1\n      tag_73\n      jump\t// in\n    tag_72:\n      sub(shl(0xa0, 0x01), 0x01)\n        /* \"contracts/Dapps/Staking.sol\":1775:1793  s_balaces[account] */\n      dup6\n      and\n      0x00\n      swap1\n      dup2\n      mstore\n        /* \"contracts/Dapps/Staking.sol\":1775:1784  s_balaces */\n      0x08\n        /* \"contracts/Dapps/Staking.sol\":1775:1793  s_balaces[account] */\n      0x20\n      mstore\n      0x40\n      swap1\n      keccak256\n      sload\n        /* \"contracts/Dapps/Staking.sol\":1775:1848  s_balaces[account]*(rewardPerToken() - s_userRewardPerTokenPaid[account]) */\n      tag_74\n      swap2\n      swap1\n      tag_75\n      jump\t// in\n    tag_74:\n        /* \"contracts/Dapps/Staking.sol\":1774:1854  (s_balaces[account]*(rewardPerToken() - s_userRewardPerTokenPaid[account]))/1e18 */\n      tag_76\n      swap2\n      swap1\n      tag_77\n      jump\t// in\n    tag_76:\n        /* \"contracts/Dapps/Staking.sol\":1773:1876  ((s_balaces[account]*(rewardPerToken() - s_userRewardPerTokenPaid[account]))/1e18) + s_rewards[account] */\n      tag_78\n      swap2\n      swap1\n      tag_79\n      jump\t// in\n    tag_78:\n        /* \"contracts/Dapps/Staking.sol\":1766:1876  return ((s_balaces[account]*(rewardPerToken() - s_userRewardPerTokenPaid[account]))/1e18) + s_rewards[account] */\n      swap3\n        /* \"contracts/Dapps/Staking.sol\":1694:2001  function earned(address account) public view returns(uint256) {... */\n      swap2\n      pop\n      pop\n      jump\t// out\n        /* \"contracts/Dapps/Staking.sol\":2372:2718  function withdraw(uint256 amount) external nonReentrant updateReward(msg.sender) {... */\n    tag_36:\n        /* \"@openzeppelin/contracts/security/ReentrancyGuard.sol\":2261:2282  _nonReentrantBefore() */\n      tag_81\n        /* \"@openzeppelin/contracts/security/ReentrancyGuard.sol\":2261:2280  _nonReentrantBefore */\n      tag_82\n        /* \"@openzeppelin/contracts/security/ReentrancyGuard.sol\":2261:2282  _nonReentrantBefore() */\n      jump\t// in\n    tag_81:\n        /* \"contracts/Dapps/Staking.sol\":2441:2451  msg.sender */\n      caller\n        /* \"contracts/Dapps/Staking.sol\":3151:3167  rewardPerToken() */\n      tag_84\n        /* \"contracts/Dapps/Staking.sol\":3151:3165  rewardPerToken */\n      tag_60\n        /* \"contracts/Dapps/Staking.sol\":3151:3167  rewardPerToken() */\n      jump\t// in\n    tag_84:\n        /* \"contracts/Dapps/Staking.sol\":3127:3148  s_rewarPerTokenStored */\n      0x04\n        /* \"contracts/Dapps/Staking.sol\":3127:3167  s_rewarPerTokenStored = rewardPerToken() */\n      sstore\n        /* \"contracts/Dapps/Staking.sol\":3196:3211  block.timestamp */\n      timestamp\n        /* \"contracts/Dapps/Staking.sol\":3177:3193  s_lastUpdateTime */\n      0x03\n        /* \"contracts/Dapps/Staking.sol\":3177:3211  s_lastUpdateTime = block.timestamp */\n      sstore\n        /* \"contracts/Dapps/Staking.sol\":3242:3257  earned(account) */\n      tag_85\n        /* \"contracts/Dapps/Staking.sol\":3249:3256  account */\n      dup2\n        /* \"contracts/Dapps/Staking.sol\":3242:3248  earned */\n      tag_23\n        /* \"contracts/Dapps/Staking.sol\":3242:3257  earned(account) */\n      jump\t// in\n    tag_85:\n      sub(shl(0xa0, 0x01), 0x01)\n        /* \"contracts/Dapps/Staking.sol\":3221:3239  s_rewards[account] */\n      dup3\n      and\n      0x00\n      swap1\n      dup2\n      mstore\n        /* \"contracts/Dapps/Staking.sol\":3221:3230  s_rewards */\n      0x06\n        /* \"contracts/Dapps/Staking.sol\":3221:3239  s_rewards[account] */\n      0x20\n      swap1\n      dup2\n      mstore\n      0x40\n      dup1\n      dup4\n      keccak256\n        /* \"contracts/Dapps/Staking.sol\":3221:3257  s_rewards[account] = earned(account) */\n      swap4\n      swap1\n      swap4\n      sstore\n        /* \"contracts/Dapps/Staking.sol\":3303:3324  s_rewarPerTokenStored */\n      sload(0x04)\n        /* \"contracts/Dapps/Staking.sol\":3267:3291  s_userRewardPerTokenPaid */\n      0x05\n        /* \"contracts/Dapps/Staking.sol\":3267:3300  s_userRewardPerTokenPaid[account] */\n      swap1\n      swap2\n      mstore\n      swap2\n      dup2\n      keccak256\n        /* \"contracts/Dapps/Staking.sol\":3267:3324  s_userRewardPerTokenPaid[account] = s_rewarPerTokenStored */\n      swap2\n      swap1\n      swap2\n      sstore\n        /* \"contracts/Dapps/Staking.sol\":2463:2476  s_totalSupply */\n      0x07\n        /* \"contracts/Dapps/Staking.sol\":2463:2484  s_totalSupply-=amount */\n      dup1\n      sload\n        /* \"contracts/Dapps/Staking.sol\":2478:2484  amount */\n      dup5\n      swap3\n        /* \"contracts/Dapps/Staking.sol\":3221:3239  s_rewards[account] */\n      swap1\n        /* \"contracts/Dapps/Staking.sol\":2463:2484  s_totalSupply-=amount */\n      tag_87\n      swap1\n        /* \"contracts/Dapps/Staking.sol\":2478:2484  amount */\n      dup5\n      swap1\n        /* \"contracts/Dapps/Staking.sol\":2463:2484  s_totalSupply-=amount */\n      tag_73\n      jump\t// in\n    tag_87:\n      swap1\n      swap2\n      sstore\n      pop\n      pop\n        /* \"contracts/Dapps/Staking.sol\":2504:2514  msg.sender */\n      caller\n        /* \"contracts/Dapps/Staking.sol\":2494:2515  s_balaces[msg.sender] */\n      0x00\n      swap1\n      dup2\n      mstore\n        /* \"contracts/Dapps/Staking.sol\":2494:2503  s_balaces */\n      0x08\n        /* \"contracts/Dapps/Staking.sol\":2494:2515  s_balaces[msg.sender] */\n      0x20\n      mstore\n      0x40\n      dup2\n      keccak256\n        /* \"contracts/Dapps/Staking.sol\":2494:2525  s_balaces[msg.sender] -= amount */\n      dup1\n      sload\n        /* \"contracts/Dapps/Staking.sol\":2519:2525  amount */\n      dup5\n      swap3\n        /* \"contracts/Dapps/Staking.sol\":2494:2515  s_balaces[msg.sender] */\n      swap1\n        /* \"contracts/Dapps/Staking.sol\":2494:2525  s_balaces[msg.sender] -= amount */\n      tag_88\n      swap1\n        /* \"contracts/Dapps/Staking.sol\":2519:2525  amount */\n      dup5\n      swap1\n        /* \"contracts/Dapps/Staking.sol\":2494:2525  s_balaces[msg.sender] -= amount */\n      tag_73\n      jump\t// in\n    tag_88:\n      swap1\n      swap2\n      sstore\n      pop\n      pop\n        /* \"contracts/Dapps/Staking.sol\":2540:2573  withdrewStake(msg.sender, amount) */\n      mload(0x40)\n        /* \"contracts/Dapps/Staking.sol\":2566:2572  amount */\n      dup3\n      swap1\n        /* \"contracts/Dapps/Staking.sol\":2554:2564  msg.sender */\n      caller\n      swap1\n        /* \"contracts/Dapps/Staking.sol\":2540:2573  withdrewStake(msg.sender, amount) */\n      0xfaf925a2782590ece15b73bcce340ae5a670caabcd87ae54e330c05ab6b92cf4\n      swap1\n      0x00\n      swap1\n      log3\n        /* \"contracts/Dapps/Staking.sol\":2598:2612  s_stakingToken */\n      sload(0x01)\n        /* \"contracts/Dapps/Staking.sol\":2598:2641  s_stakingToken.transfer(msg.sender, amount) */\n      mload(0x40)\n      shl(0xe0, 0xa9059cbb)\n      dup2\n      mstore\n        /* \"contracts/Dapps/Staking.sol\":2622:2632  msg.sender */\n      caller\n        /* \"contracts/Dapps/Staking.sol\":2598:2641  s_stakingToken.transfer(msg.sender, amount) */\n      0x04\n      dup3\n      add\n        /* \"#utility.yul\":1904:1978   */\n      mstore\n        /* \"#utility.yul\":1994:2012   */\n      0x24\n      dup2\n      add\n        /* \"#utility.yul\":1987:2021   */\n      dup5\n      swap1\n      mstore\n        /* \"contracts/Dapps/Staking.sol\":2583:2595  bool success */\n      0x00\n      swap2\n      sub(shl(0xa0, 0x01), 0x01)\n        /* \"contracts/Dapps/Staking.sol\":2598:2612  s_stakingToken */\n      and\n      swap1\n        /* \"contracts/Dapps/Staking.sol\":2598:2621  s_stakingToken.transfer */\n      0xa9059cbb\n      swap1\n        /* \"#utility.yul\":1877:1895   */\n      0x44\n      add\n        /* \"contracts/Dapps/Staking.sol\":2598:2641  s_stakingToken.transfer(msg.sender, amount) */\n      0x20\n      mload(0x40)\n      dup1\n      dup4\n      sub\n      dup2\n      0x00\n      dup8\n      gas\n      call\n      iszero\n      dup1\n      iszero\n      tag_92\n      jumpi\n      returndatasize\n      0x00\n      dup1\n      returndatacopy\n      revert(0x00, returndatasize)\n    tag_92:\n      pop\n      pop\n      pop\n      pop\n      mload(0x40)\n      returndatasize\n      not(0x1f)\n      0x1f\n      dup3\n      add\n      and\n      dup3\n      add\n      dup1\n      0x40\n      mstore\n      pop\n      dup2\n      add\n      swap1\n      tag_93\n      swap2\n      swap1\n      tag_94\n      jump\t// in\n    tag_93:\n        /* \"contracts/Dapps/Staking.sol\":2583:2641  bool success = s_stakingToken.transfer(msg.sender, amount) */\n      swap1\n      pop\n        /* \"contracts/Dapps/Staking.sol\":2655:2662  success */\n      dup1\n        /* \"contracts/Dapps/Staking.sol\":2651:2712  if(!success) {... */\n      tag_95\n      jumpi\n        /* \"contracts/Dapps/Staking.sol\":2685:2701  TransferFailed() */\n      mload(0x40)\n      shl(0xe3, 0x12171d83)\n      dup2\n      mstore\n      0x04\n      add\n      mload(0x40)\n      dup1\n      swap2\n      sub\n      swap1\n      revert\n        /* \"contracts/Dapps/Staking.sol\":2651:2712  if(!success) {... */\n    tag_95:\n        /* \"contracts/Dapps/Staking.sol\":2453:2718  {... */\n      pop\n        /* \"@openzeppelin/contracts/security/ReentrancyGuard.sol\":2292:2293  _ */\n      pop\n        /* \"@openzeppelin/contracts/security/ReentrancyGuard.sol\":2303:2323  _nonReentrantAfter() */\n      tag_96\n        /* \"@openzeppelin/contracts/security/ReentrancyGuard.sol\":1716:1717  1 */\n      0x01\n        /* \"@openzeppelin/contracts/security/ReentrancyGuard.sol\":2809:2816  _status */\n      0x00\n        /* \"@openzeppelin/contracts/security/ReentrancyGuard.sol\":2809:2831  _status = _NOT_ENTERED */\n      sstore\n        /* \"@openzeppelin/contracts/security/ReentrancyGuard.sol\":2629:2838  function _nonReentrantAfter() private {... */\n      jump\n        /* \"@openzeppelin/contracts/security/ReentrancyGuard.sol\":2303:2323  _nonReentrantAfter() */\n    tag_96:\n        /* \"contracts/Dapps/Staking.sol\":2372:2718  function withdraw(uint256 amount) external nonReentrant updateReward(msg.sender) {... */\n      pop\n      jump\t// out\n        /* \"contracts/Dapps/Staking.sol\":2008:2366  function stake(uint256 amount) external updateReward(msg.sender) nonReentrant moreThanZero(amount) {... */\n    tag_49:\n        /* \"contracts/Dapps/Staking.sol\":2061:2071  msg.sender */\n      caller\n        /* \"contracts/Dapps/Staking.sol\":3151:3167  rewardPerToken() */\n      tag_100\n        /* \"contracts/Dapps/Staking.sol\":3151:3165  rewardPerToken */\n      tag_60\n        /* \"contracts/Dapps/Staking.sol\":3151:3167  rewardPerToken() */\n      jump\t// in\n    tag_100:\n        /* \"contracts/Dapps/Staking.sol\":3127:3148  s_rewarPerTokenStored */\n      0x04\n        /* \"contracts/Dapps/Staking.sol\":3127:3167  s_rewarPerTokenStored = rewardPerToken() */\n      sstore\n        /* \"contracts/Dapps/Staking.sol\":3196:3211  block.timestamp */\n      timestamp\n        /* \"contracts/Dapps/Staking.sol\":3177:3193  s_lastUpdateTime */\n      0x03\n        /* \"contracts/Dapps/Staking.sol\":3177:3211  s_lastUpdateTime = block.timestamp */\n      sstore\n        /* \"contracts/Dapps/Staking.sol\":3242:3257  earned(account) */\n      tag_101\n        /* \"contracts/Dapps/Staking.sol\":3249:3256  account */\n      dup2\n        /* \"contracts/Dapps/Staking.sol\":3242:3248  earned */\n      tag_23\n        /* \"contracts/Dapps/Staking.sol\":3242:3257  earned(account) */\n      jump\t// in\n    tag_101:\n      sub(shl(0xa0, 0x01), 0x01)\n        /* \"contracts/Dapps/Staking.sol\":3221:3239  s_rewards[account] */\n      dup3\n      and\n      0x00\n      swap1\n      dup2\n      mstore\n        /* \"contracts/Dapps/Staking.sol\":3221:3230  s_rewards */\n      0x06\n        /* \"contracts/Dapps/Staking.sol\":3221:3239  s_rewards[account] */\n      0x20\n      swap1\n      dup2\n      mstore\n      0x40\n      dup1\n      dup4\n      keccak256\n        /* \"contracts/Dapps/Staking.sol\":3221:3257  s_rewards[account] = earned(account) */\n      swap4\n      swap1\n      swap4\n      sstore\n        /* \"contracts/Dapps/Staking.sol\":3303:3324  s_rewarPerTokenStored */\n      sload(0x04)\n        /* \"contracts/Dapps/Staking.sol\":3267:3291  s_userRewardPerTokenPaid */\n      0x05\n        /* \"contracts/Dapps/Staking.sol\":3267:3300  s_userRewardPerTokenPaid[account] */\n      swap1\n      swap2\n      mstore\n      swap2\n      swap1\n      keccak256\n        /* \"contracts/Dapps/Staking.sol\":3267:3324  s_userRewardPerTokenPaid[account] = s_rewarPerTokenStored */\n      sstore\n        /* \"@openzeppelin/contracts/security/ReentrancyGuard.sol\":2261:2282  _nonReentrantBefore() */\n      tag_103\n        /* \"@openzeppelin/contracts/security/ReentrancyGuard.sol\":2261:2280  _nonReentrantBefore */\n      tag_82\n        /* \"@openzeppelin/contracts/security/ReentrancyGuard.sol\":2261:2282  _nonReentrantBefore() */\n      jump\t// in\n    tag_103:\n        /* \"contracts/Dapps/Staking.sol\":2099:2105  amount */\n      dup2\n        /* \"contracts/Dapps/Staking.sol\":3399:3405  amount */\n      dup1\n        /* \"contracts/Dapps/Staking.sol\":3409:3410  0 */\n      0x00\n        /* \"contracts/Dapps/Staking.sol\":3399:3410  amount == 0 */\n      sub\n        /* \"contracts/Dapps/Staking.sol\":3396:3463  if(amount == 0) {... */\n      tag_105\n      jumpi\n        /* \"contracts/Dapps/Staking.sol\":3433:3452  NeedsMoreThanZero() */\n      mload(0x40)\n      shl(0xe4, 0x0f45911f)\n      dup2\n      mstore\n      0x04\n      add\n      mload(0x40)\n      dup1\n      swap2\n      sub\n      swap1\n      revert\n        /* \"contracts/Dapps/Staking.sol\":3396:3463  if(amount == 0) {... */\n    tag_105:\n        /* \"contracts/Dapps/Staking.sol\":2132:2138  amount */\n      dup3\n        /* \"contracts/Dapps/Staking.sol\":2117:2130  s_totalSupply */\n      0x07\n      0x00\n        /* \"contracts/Dapps/Staking.sol\":2117:2138  s_totalSupply+=amount */\n      dup3\n      dup3\n      sload\n      tag_107\n      swap2\n      swap1\n      tag_79\n      jump\t// in\n    tag_107:\n      swap1\n      swap2\n      sstore\n      pop\n      pop\n        /* \"contracts/Dapps/Staking.sol\":2158:2168  msg.sender */\n      caller\n        /* \"contracts/Dapps/Staking.sol\":2148:2169  s_balaces[msg.sender] */\n      0x00\n      swap1\n      dup2\n      mstore\n        /* \"contracts/Dapps/Staking.sol\":2148:2157  s_balaces */\n      0x08\n        /* \"contracts/Dapps/Staking.sol\":2148:2169  s_balaces[msg.sender] */\n      0x20\n      mstore\n      0x40\n      dup2\n      keccak256\n        /* \"contracts/Dapps/Staking.sol\":2148:2177  s_balaces[msg.sender]+=amount */\n      dup1\n      sload\n        /* \"contracts/Dapps/Staking.sol\":2171:2177  amount */\n      dup6\n      swap3\n        /* \"contracts/Dapps/Staking.sol\":2148:2169  s_balaces[msg.sender] */\n      swap1\n        /* \"contracts/Dapps/Staking.sol\":2148:2177  s_balaces[msg.sender]+=amount */\n      tag_108\n      swap1\n        /* \"contracts/Dapps/Staking.sol\":2171:2177  amount */\n      dup5\n      swap1\n        /* \"contracts/Dapps/Staking.sol\":2148:2177  s_balaces[msg.sender]+=amount */\n      tag_79\n      jump\t// in\n    tag_108:\n      swap1\n      swap2\n      sstore\n      pop\n      pop\n        /* \"contracts/Dapps/Staking.sol\":2192:2218  Staked(msg.sender, amount) */\n      mload(0x40)\n        /* \"contracts/Dapps/Staking.sol\":2211:2217  amount */\n      dup4\n      swap1\n        /* \"contracts/Dapps/Staking.sol\":2199:2209  msg.sender */\n      caller\n      swap1\n        /* \"contracts/Dapps/Staking.sol\":2192:2218  Staked(msg.sender, amount) */\n      0x9e71bc8eea02a63969f509818f2dafb9254532904319f9dbda79b67bd34a5f3d\n      swap1\n      0x00\n      swap1\n      log3\n        /* \"contracts/Dapps/Staking.sol\":2243:2257  s_stakingToken */\n      sload(0x01)\n        /* \"contracts/Dapps/Staking.sol\":2243:2289  s_stakingToken.transfer(address(this), amount) */\n      mload(0x40)\n      shl(0xe0, 0xa9059cbb)\n      dup2\n      mstore\n        /* \"contracts/Dapps/Staking.sol\":2275:2279  this */\n      address\n        /* \"contracts/Dapps/Staking.sol\":2243:2289  s_stakingToken.transfer(address(this), amount) */\n      0x04\n      dup3\n      add\n        /* \"#utility.yul\":1904:1978   */\n      mstore\n        /* \"#utility.yul\":1994:2012   */\n      0x24\n      dup2\n      add\n        /* \"#utility.yul\":1987:2021   */\n      dup6\n      swap1\n      mstore\n        /* \"contracts/Dapps/Staking.sol\":2228:2240  bool success */\n      0x00\n      swap2\n      sub(shl(0xa0, 0x01), 0x01)\n        /* \"contracts/Dapps/Staking.sol\":2243:2257  s_stakingToken */\n      and\n      swap1\n        /* \"contracts/Dapps/Staking.sol\":2243:2266  s_stakingToken.transfer */\n      0xa9059cbb\n      swap1\n        /* \"#utility.yul\":1877:1895   */\n      0x44\n      add\n        /* \"contracts/Dapps/Staking.sol\":2243:2289  s_stakingToken.transfer(address(this), amount) */\n      0x20\n      mload(0x40)\n      dup1\n      dup4\n      sub\n      dup2\n      0x00\n      dup8\n      gas\n      call\n      iszero\n      dup1\n      iszero\n      tag_111\n      jumpi\n      returndatasize\n      0x00\n      dup1\n      returndatacopy\n      revert(0x00, returndatasize)\n    tag_111:\n      pop\n      pop\n      pop\n      pop\n      mload(0x40)\n      returndatasize\n      not(0x1f)\n      0x1f\n      dup3\n      add\n      and\n      dup3\n      add\n      dup1\n      0x40\n      mstore\n      pop\n      dup2\n      add\n      swap1\n      tag_112\n      swap2\n      swap1\n      tag_94\n      jump\t// in\n    tag_112:\n        /* \"contracts/Dapps/Staking.sol\":2228:2289  bool success = s_stakingToken.transfer(address(this), amount) */\n      swap1\n      pop\n        /* \"contracts/Dapps/Staking.sol\":2303:2310  success */\n      dup1\n        /* \"contracts/Dapps/Staking.sol\":2299:2360  if(!success) {... */\n      tag_113\n      jumpi\n        /* \"contracts/Dapps/Staking.sol\":2333:2349  TransferFailed() */\n      mload(0x40)\n      shl(0xe3, 0x12171d83)\n      dup2\n      mstore\n      0x04\n      add\n      mload(0x40)\n      dup1\n      swap2\n      sub\n      swap1\n      revert\n        /* \"contracts/Dapps/Staking.sol\":2299:2360  if(!success) {... */\n    tag_113:\n        /* \"contracts/Dapps/Staking.sol\":2107:2366  {... */\n      pop\n        /* \"@openzeppelin/contracts/security/ReentrancyGuard.sol\":2292:2293  _ */\n      pop\n        /* \"@openzeppelin/contracts/security/ReentrancyGuard.sol\":2303:2323  _nonReentrantAfter() */\n      tag_114\n        /* \"@openzeppelin/contracts/security/ReentrancyGuard.sol\":1716:1717  1 */\n      0x01\n        /* \"@openzeppelin/contracts/security/ReentrancyGuard.sol\":2809:2816  _status */\n      0x00\n        /* \"@openzeppelin/contracts/security/ReentrancyGuard.sol\":2809:2831  _status = _NOT_ENTERED */\n      sstore\n        /* \"@openzeppelin/contracts/security/ReentrancyGuard.sol\":2629:2838  function _nonReentrantAfter() private {... */\n      jump\n        /* \"@openzeppelin/contracts/security/ReentrancyGuard.sol\":2303:2323  _nonReentrantAfter() */\n    tag_114:\n        /* \"contracts/Dapps/Staking.sol\":2008:2366  function stake(uint256 amount) external updateReward(msg.sender) nonReentrant moreThanZero(amount) {... */\n      pop\n      pop\n      jump\t// out\n        /* \"contracts/Dapps/Staking.sol\":2724:3072  function claimReward() external  nonReentrant updateReward(msg.sender) {... */\n    tag_54:\n        /* \"@openzeppelin/contracts/security/ReentrancyGuard.sol\":2261:2282  _nonReentrantBefore() */\n      tag_116\n        /* \"@openzeppelin/contracts/security/ReentrancyGuard.sol\":2261:2280  _nonReentrantBefore */\n      tag_82\n        /* \"@openzeppelin/contracts/security/ReentrancyGuard.sol\":2261:2282  _nonReentrantBefore() */\n      jump\t// in\n    tag_116:\n        /* \"contracts/Dapps/Staking.sol\":2783:2793  msg.sender */\n      caller\n        /* \"contracts/Dapps/Staking.sol\":3151:3167  rewardPerToken() */\n      tag_118\n        /* \"contracts/Dapps/Staking.sol\":3151:3165  rewardPerToken */\n      tag_60\n        /* \"contracts/Dapps/Staking.sol\":3151:3167  rewardPerToken() */\n      jump\t// in\n    tag_118:\n        /* \"contracts/Dapps/Staking.sol\":3127:3148  s_rewarPerTokenStored */\n      0x04\n        /* \"contracts/Dapps/Staking.sol\":3127:3167  s_rewarPerTokenStored = rewardPerToken() */\n      sstore\n        /* \"contracts/Dapps/Staking.sol\":3196:3211  block.timestamp */\n      timestamp\n        /* \"contracts/Dapps/Staking.sol\":3177:3193  s_lastUpdateTime */\n      0x03\n        /* \"contracts/Dapps/Staking.sol\":3177:3211  s_lastUpdateTime = block.timestamp */\n      sstore\n        /* \"contracts/Dapps/Staking.sol\":3242:3257  earned(account) */\n      tag_119\n        /* \"contracts/Dapps/Staking.sol\":3249:3256  account */\n      dup2\n        /* \"contracts/Dapps/Staking.sol\":3242:3248  earned */\n      tag_23\n        /* \"contracts/Dapps/Staking.sol\":3242:3257  earned(account) */\n      jump\t// in\n    tag_119:\n      sub(shl(0xa0, 0x01), 0x01)\n        /* \"contracts/Dapps/Staking.sol\":3221:3239  s_rewards[account] */\n      dup3\n      and\n      0x00\n      swap1\n      dup2\n      mstore\n        /* \"contracts/Dapps/Staking.sol\":3221:3230  s_rewards */\n      0x06\n        /* \"contracts/Dapps/Staking.sol\":3221:3239  s_rewards[account] */\n      0x20\n      dup2\n      dup2\n      mstore\n      0x40\n      dup1\n      dup5\n      keccak256\n        /* \"contracts/Dapps/Staking.sol\":3221:3257  s_rewards[account] = earned(account) */\n      swap5\n      swap1\n      swap5\n      sstore\n        /* \"contracts/Dapps/Staking.sol\":3303:3324  s_rewarPerTokenStored */\n      sload(0x04)\n        /* \"contracts/Dapps/Staking.sol\":3267:3291  s_userRewardPerTokenPaid */\n      0x05\n        /* \"contracts/Dapps/Staking.sol\":3267:3300  s_userRewardPerTokenPaid[account] */\n      dup3\n      mstore\n      dup5\n      dup5\n      keccak256\n        /* \"contracts/Dapps/Staking.sol\":3267:3324  s_userRewardPerTokenPaid[account] = s_rewarPerTokenStored */\n      sstore\n        /* \"contracts/Dapps/Staking.sol\":2832:2842  msg.sender */\n      caller\n        /* \"contracts/Dapps/Staking.sol\":2822:2843  s_rewards[msg.sender] */\n      dup1\n      dup5\n      mstore\n      swap2\n      swap1\n      mstore\n      dup3\n      dup3\n      keccak256\n      dup1\n      sload\n        /* \"contracts/Dapps/Staking.sol\":2853:2878  s_rewards[msg.sender] = 0 */\n      swap1\n      dup4\n      swap1\n      sstore\n        /* \"contracts/Dapps/Staking.sol\":2893:2927  RewardsClaimed(msg.sender, reward) */\n      swap3\n      mload\n        /* \"contracts/Dapps/Staking.sol\":2822:2843  s_rewards[msg.sender] */\n      dup4\n      swap3\n        /* \"contracts/Dapps/Staking.sol\":2893:2927  RewardsClaimed(msg.sender, reward) */\n      0xfc30cddea38e2bf4d6ea7d3f9ed3b6ad7f176419f4963bd81318067a4aee73fe\n      swap2\n      log3\n        /* \"contracts/Dapps/Staking.sol\":2952:2966  s_rewardsToken */\n      sload(0x02)\n        /* \"contracts/Dapps/Staking.sol\":2952:2995  s_rewardsToken.transfer(msg.sender, reward) */\n      mload(0x40)\n      shl(0xe0, 0xa9059cbb)\n      dup2\n      mstore\n        /* \"contracts/Dapps/Staking.sol\":2976:2986  msg.sender */\n      caller\n        /* \"contracts/Dapps/Staking.sol\":2952:2995  s_rewardsToken.transfer(msg.sender, reward) */\n      0x04\n      dup3\n      add\n        /* \"#utility.yul\":1904:1978   */\n      mstore\n        /* \"#utility.yul\":1994:2012   */\n      0x24\n      dup2\n      add\n        /* \"#utility.yul\":1987:2021   */\n      dup4\n      swap1\n      mstore\n        /* \"contracts/Dapps/Staking.sol\":2937:2949  bool success */\n      0x00\n      swap2\n      sub(shl(0xa0, 0x01), 0x01)\n        /* \"contracts/Dapps/Staking.sol\":2952:2966  s_rewardsToken */\n      and\n      swap1\n        /* \"contracts/Dapps/Staking.sol\":2952:2975  s_rewardsToken.transfer */\n      0xa9059cbb\n      swap1\n        /* \"#utility.yul\":1877:1895   */\n      0x44\n      add\n        /* \"contracts/Dapps/Staking.sol\":2952:2995  s_rewardsToken.transfer(msg.sender, reward) */\n      0x20\n      mload(0x40)\n      dup1\n      dup4\n      sub\n      dup2\n      0x00\n      dup8\n      gas\n      call\n      iszero\n      dup1\n      iszero\n      tag_123\n      jumpi\n      returndatasize\n      0x00\n      dup1\n      returndatacopy\n      revert(0x00, returndatasize)\n    tag_123:\n      pop\n      pop\n      pop\n      pop\n      mload(0x40)\n      returndatasize\n      not(0x1f)\n      0x1f\n      dup3\n      add\n      and\n      dup3\n      add\n      dup1\n      0x40\n      mstore\n      pop\n      dup2\n      add\n      swap1\n      tag_124\n      swap2\n      swap1\n      tag_94\n      jump\t// in\n    tag_124:\n        /* \"contracts/Dapps/Staking.sol\":2937:2995  bool success = s_rewardsToken.transfer(msg.sender, reward) */\n      swap1\n      pop\n        /* \"contracts/Dapps/Staking.sol\":3009:3016  success */\n      dup1\n        /* \"contracts/Dapps/Staking.sol\":3005:3066  if(!success) {... */\n      tag_125\n      jumpi\n        /* \"contracts/Dapps/Staking.sol\":3039:3055  TransferFailed() */\n      mload(0x40)\n      shl(0xe3, 0x12171d83)\n      dup2\n      mstore\n      0x04\n      add\n      mload(0x40)\n      dup1\n      swap2\n      sub\n      swap1\n      revert\n        /* \"contracts/Dapps/Staking.sol\":3005:3066  if(!success) {... */\n    tag_125:\n        /* \"contracts/Dapps/Staking.sol\":2795:3072  {... */\n      pop\n      pop\n        /* \"@openzeppelin/contracts/security/ReentrancyGuard.sol\":2292:2293  _ */\n      pop\n        /* \"@openzeppelin/contracts/security/ReentrancyGuard.sol\":2303:2323  _nonReentrantAfter() */\n      tag_126\n        /* \"@openzeppelin/contracts/security/ReentrancyGuard.sol\":1716:1717  1 */\n      0x01\n        /* \"@openzeppelin/contracts/security/ReentrancyGuard.sol\":2809:2816  _status */\n      0x00\n        /* \"@openzeppelin/contracts/security/ReentrancyGuard.sol\":2809:2831  _status = _NOT_ENTERED */\n      sstore\n        /* \"@openzeppelin/contracts/security/ReentrancyGuard.sol\":2629:2838  function _nonReentrantAfter() private {... */\n      jump\n        /* \"@openzeppelin/contracts/security/ReentrancyGuard.sol\":2303:2323  _nonReentrantAfter() */\n    tag_126:\n        /* \"contracts/Dapps/Staking.sol\":2724:3072  function claimReward() external  nonReentrant updateReward(msg.sender) {... */\n      jump\t// out\n        /* \"contracts/Dapps/Staking.sol\":1273:1688  function rewardPerToken() public view returns(uint256) {... */\n    tag_60:\n        /* \"contracts/Dapps/Staking.sol\":1319:1326  uint256 */\n      0x00\n        /* \"contracts/Dapps/Staking.sol\":1341:1354  s_totalSupply */\n      sload(0x07)\n        /* \"contracts/Dapps/Staking.sol\":1358:1359  0 */\n      0x00\n        /* \"contracts/Dapps/Staking.sol\":1341:1359  s_totalSupply == 0 */\n      sub\n        /* \"contracts/Dapps/Staking.sol\":1338:1414  if(s_totalSupply == 0) {... */\n      tag_128\n      jumpi\n      pop\n        /* \"contracts/Dapps/Staking.sol\":1382:1403  s_rewarPerTokenStored */\n      sload(0x04)\n      swap1\n        /* \"contracts/Dapps/Staking.sol\":1273:1688  function rewardPerToken() public view returns(uint256) {... */\n      jump\t// out\n        /* \"contracts/Dapps/Staking.sol\":1338:1414  if(s_totalSupply == 0) {... */\n    tag_128:\n        /* \"contracts/Dapps/Staking.sol\":1508:1521  s_totalSupply */\n      sload(0x07)\n        /* \"contracts/Dapps/Staking.sol\":496:499  100 */\n      0x64\n        /* \"contracts/Dapps/Staking.sol\":1472:1488  s_lastUpdateTime */\n      sload(0x03)\n        /* \"contracts/Dapps/Staking.sol\":1456:1471  block.timestamp */\n      timestamp\n        /* \"contracts/Dapps/Staking.sol\":1456:1488  block.timestamp-s_lastUpdateTime */\n      tag_129\n      swap2\n      swap1\n      tag_73\n      jump\t// in\n    tag_129:\n        /* \"contracts/Dapps/Staking.sol\":1455:1501  (block.timestamp-s_lastUpdateTime)*REWARD_RATE */\n      tag_130\n      swap2\n      swap1\n      tag_75\n      jump\t// in\n    tag_130:\n        /* \"contracts/Dapps/Staking.sol\":1455:1506  (block.timestamp-s_lastUpdateTime)*REWARD_RATE*1e18 */\n      tag_131\n      swap1\n        /* \"contracts/Dapps/Staking.sol\":1502:1506  1e18 */\n      0x0de0b6b3a7640000\n        /* \"contracts/Dapps/Staking.sol\":1455:1506  (block.timestamp-s_lastUpdateTime)*REWARD_RATE*1e18 */\n      tag_75\n      jump\t// in\n    tag_131:\n        /* \"contracts/Dapps/Staking.sol\":1454:1521  ((block.timestamp-s_lastUpdateTime)*REWARD_RATE*1e18)/s_totalSupply */\n      tag_132\n      swap2\n      swap1\n      tag_77\n      jump\t// in\n    tag_132:\n        /* \"contracts/Dapps/Staking.sol\":1431:1452  s_rewarPerTokenStored */\n      sload(0x04)\n        /* \"contracts/Dapps/Staking.sol\":1431:1522  s_rewarPerTokenStored+(((block.timestamp-s_lastUpdateTime)*REWARD_RATE*1e18)/s_totalSupply) */\n      tag_133\n      swap2\n      swap1\n      tag_79\n      jump\t// in\n    tag_133:\n        /* \"contracts/Dapps/Staking.sol\":1424:1522  return s_rewarPerTokenStored+(((block.timestamp-s_lastUpdateTime)*REWARD_RATE*1e18)/s_totalSupply) */\n      swap1\n      pop\n        /* \"contracts/Dapps/Staking.sol\":1273:1688  function rewardPerToken() public view returns(uint256) {... */\n      swap1\n      jump\t// out\n        /* \"@openzeppelin/contracts/security/ReentrancyGuard.sol\":2336:2623  function _nonReentrantBefore() private {... */\n    tag_82:\n        /* \"@openzeppelin/contracts/security/ReentrancyGuard.sol\":1759:1760  2 */\n      0x02\n        /* \"@openzeppelin/contracts/security/ReentrancyGuard.sol\":2468:2475  _status */\n      sload(0x00)\n        /* \"@openzeppelin/contracts/security/ReentrancyGuard.sol\":2468:2487  _status != _ENTERED */\n      sub\n        /* \"@openzeppelin/contracts/security/ReentrancyGuard.sol\":2460:2523  require(_status != _ENTERED, \"ReentrancyGuard: reentrant call\") */\n      tag_135\n      jumpi\n      mload(0x40)\n      shl(0xe5, 0x461bcd)\n      dup2\n      mstore\n        /* \"#utility.yul\":2516:2518   */\n      0x20\n        /* \"@openzeppelin/contracts/security/ReentrancyGuard.sol\":2460:2523  require(_status != _ENTERED, \"ReentrancyGuard: reentrant call\") */\n      0x04\n      dup3\n      add\n        /* \"#utility.yul\":2498:2519   */\n      mstore\n        /* \"#utility.yul\":2555:2557   */\n      0x1f\n        /* \"#utility.yul\":2535:2553   */\n      0x24\n      dup3\n      add\n        /* \"#utility.yul\":2528:2558   */\n      mstore\n        /* \"#utility.yul\":2594:2627   */\n      0x5265656e7472616e637947756172643a207265656e7472616e742063616c6c00\n        /* \"#utility.yul\":2574:2592   */\n      0x44\n      dup3\n      add\n        /* \"#utility.yul\":2567:2628   */\n      mstore\n        /* \"#utility.yul\":2645:2663   */\n      0x64\n      add\n        /* \"@openzeppelin/contracts/security/ReentrancyGuard.sol\":2460:2523  require(_status != _ENTERED, \"ReentrancyGuard: reentrant call\") */\n      mload(0x40)\n      dup1\n      swap2\n      sub\n      swap1\n      revert\n    tag_135:\n        /* \"@openzeppelin/contracts/security/ReentrancyGuard.sol\":1759:1760  2 */\n      0x02\n        /* \"@openzeppelin/contracts/security/ReentrancyGuard.sol\":2598:2605  _status */\n      0x00\n        /* \"@openzeppelin/contracts/security/ReentrancyGuard.sol\":2598:2616  _status = _ENTERED */\n      sstore\n        /* \"@openzeppelin/contracts/security/ReentrancyGuard.sol\":2336:2623  function _nonReentrantBefore() private {... */\n      jump\t// out\n        /* \"#utility.yul\":14:323   */\n    tag_22:\n        /* \"#utility.yul\":73:79   */\n      0x00\n        /* \"#utility.yul\":126:128   */\n      0x20\n        /* \"#utility.yul\":114:123   */\n      dup3\n        /* \"#utility.yul\":105:112   */\n      dup5\n        /* \"#utility.yul\":101:124   */\n      sub\n        /* \"#utility.yul\":97:129   */\n      slt\n        /* \"#utility.yul\":94:146   */\n      iszero\n      tag_142\n      jumpi\n        /* \"#utility.yul\":142:143   */\n      0x00\n        /* \"#utility.yul\":139:140   */\n      dup1\n        /* \"#utility.yul\":132:144   */\n      revert\n        /* \"#utility.yul\":94:146   */\n    tag_142:\n        /* \"#utility.yul\":181:190   */\n      dup2\n        /* \"#utility.yul\":168:191   */\n      calldataload\n      sub(shl(0xa0, 0x01), 0x01)\n        /* \"#utility.yul\":224:229   */\n      dup2\n        /* \"#utility.yul\":220:274   */\n      and\n        /* \"#utility.yul\":213:218   */\n      dup2\n        /* \"#utility.yul\":210:275   */\n      eq\n        /* \"#utility.yul\":200:293   */\n      tag_143\n      jumpi\n        /* \"#utility.yul\":289:290   */\n      0x00\n        /* \"#utility.yul\":286:287   */\n      dup1\n        /* \"#utility.yul\":279:291   */\n      revert\n        /* \"#utility.yul\":200:293   */\n    tag_143:\n        /* \"#utility.yul\":312:317   */\n      swap4\n        /* \"#utility.yul\":14:323   */\n      swap3\n      pop\n      pop\n      pop\n      jump\t// out\n        /* \"#utility.yul\":755:935   */\n    tag_35:\n        /* \"#utility.yul\":814:820   */\n      0x00\n        /* \"#utility.yul\":867:869   */\n      0x20\n        /* \"#utility.yul\":855:864   */\n      dup3\n        /* \"#utility.yul\":846:853   */\n      dup5\n        /* \"#utility.yul\":842:865   */\n      sub\n        /* \"#utility.yul\":838:870   */\n      slt\n        /* \"#utility.yul\":835:887   */\n      iszero\n      tag_147\n      jumpi\n        /* \"#utility.yul\":883:884   */\n      0x00\n        /* \"#utility.yul\":880:881   */\n      dup1\n        /* \"#utility.yul\":873:885   */\n      revert\n        /* \"#utility.yul\":835:887   */\n    tag_147:\n      pop\n        /* \"#utility.yul\":906:929   */\n      calldataload\n      swap2\n        /* \"#utility.yul\":755:935   */\n      swap1\n      pop\n      jump\t// out\n        /* \"#utility.yul\":940:1067   */\n    tag_139:\n        /* \"#utility.yul\":1001:1011   */\n      0x4e487b71\n        /* \"#utility.yul\":996:999   */\n      0xe0\n        /* \"#utility.yul\":992:1012   */\n      shl\n        /* \"#utility.yul\":989:990   */\n      0x00\n        /* \"#utility.yul\":982:1013   */\n      mstore\n        /* \"#utility.yul\":1032:1036   */\n      0x11\n        /* \"#utility.yul\":1029:1030   */\n      0x04\n        /* \"#utility.yul\":1022:1037   */\n      mstore\n        /* \"#utility.yul\":1056:1060   */\n      0x24\n        /* \"#utility.yul\":1053:1054   */\n      0x00\n        /* \"#utility.yul\":1046:1061   */\n      revert\n        /* \"#utility.yul\":1072:1200   */\n    tag_73:\n        /* \"#utility.yul\":1139:1148   */\n      dup2\n      dup2\n      sub\n        /* \"#utility.yul\":1160:1171   */\n      dup2\n      dup2\n      gt\n        /* \"#utility.yul\":1157:1194   */\n      iszero\n      tag_78\n      jumpi\n        /* \"#utility.yul\":1174:1192   */\n      tag_78\n      tag_139\n      jump\t// in\n        /* \"#utility.yul\":1205:1373   */\n    tag_75:\n        /* \"#utility.yul\":1278:1287   */\n      dup1\n      dup3\n      mul\n        /* \"#utility.yul\":1309:1318   */\n      dup2\n      iszero\n        /* \"#utility.yul\":1326:1341   */\n      dup3\n      dup3\n      div\n        /* \"#utility.yul\":1320:1342   */\n      dup5\n      eq\n        /* \"#utility.yul\":1306:1343   */\n      or\n        /* \"#utility.yul\":1296:1367   */\n      tag_78\n      jumpi\n        /* \"#utility.yul\":1347:1365   */\n      tag_78\n      tag_139\n      jump\t// in\n        /* \"#utility.yul\":1378:1595   */\n    tag_77:\n        /* \"#utility.yul\":1418:1419   */\n      0x00\n        /* \"#utility.yul\":1444:1445   */\n      dup3\n        /* \"#utility.yul\":1434:1566   */\n      tag_156\n      jumpi\n        /* \"#utility.yul\":1488:1498   */\n      0x4e487b71\n        /* \"#utility.yul\":1483:1486   */\n      0xe0\n        /* \"#utility.yul\":1479:1499   */\n      shl\n        /* \"#utility.yul\":1476:1477   */\n      0x00\n        /* \"#utility.yul\":1469:1500   */\n      mstore\n        /* \"#utility.yul\":1523:1527   */\n      0x12\n        /* \"#utility.yul\":1520:1521   */\n      0x04\n        /* \"#utility.yul\":1513:1528   */\n      mstore\n        /* \"#utility.yul\":1551:1555   */\n      0x24\n        /* \"#utility.yul\":1548:1549   */\n      0x00\n        /* \"#utility.yul\":1541:1556   */\n      revert\n        /* \"#utility.yul\":1434:1566   */\n    tag_156:\n      pop\n        /* \"#utility.yul\":1580:1589   */\n      div\n      swap1\n        /* \"#utility.yul\":1378:1595   */\n      jump\t// out\n        /* \"#utility.yul\":1600:1725   */\n    tag_79:\n        /* \"#utility.yul\":1665:1674   */\n      dup1\n      dup3\n      add\n        /* \"#utility.yul\":1686:1696   */\n      dup1\n      dup3\n      gt\n        /* \"#utility.yul\":1683:1719   */\n      iszero\n      tag_78\n      jumpi\n        /* \"#utility.yul\":1699:1717   */\n      tag_78\n      tag_139\n      jump\t// in\n        /* \"#utility.yul\":2032:2309   */\n    tag_94:\n        /* \"#utility.yul\":2099:2105   */\n      0x00\n        /* \"#utility.yul\":2152:2154   */\n      0x20\n        /* \"#utility.yul\":2140:2149   */\n      dup3\n        /* \"#utility.yul\":2131:2138   */\n      dup5\n        /* \"#utility.yul\":2127:2150   */\n      sub\n        /* \"#utility.yul\":2123:2155   */\n      slt\n        /* \"#utility.yul\":2120:2172   */\n      iszero\n      tag_162\n      jumpi\n        /* \"#utility.yul\":2168:2169   */\n      0x00\n        /* \"#utility.yul\":2165:2166   */\n      dup1\n        /* \"#utility.yul\":2158:2170   */\n      revert\n        /* \"#utility.yul\":2120:2172   */\n    tag_162:\n        /* \"#utility.yul\":2200:2209   */\n      dup2\n        /* \"#utility.yul\":2194:2210   */\n      mload\n        /* \"#utility.yul\":2253:2258   */\n      dup1\n        /* \"#utility.yul\":2246:2259   */\n      iszero\n        /* \"#utility.yul\":2239:2260   */\n      iszero\n        /* \"#utility.yul\":2232:2237   */\n      dup2\n        /* \"#utility.yul\":2229:2261   */\n      eq\n        /* \"#utility.yul\":2219:2279   */\n      tag_143\n      jumpi\n        /* \"#utility.yul\":2275:2276   */\n      0x00\n        /* \"#utility.yul\":2272:2273   */\n      dup1\n        /* \"#utility.yul\":2265:2277   */\n      revert\n\n    auxdata: 0xa26469706673582212205beff84cecf97a9b8b63f6f0edcb1bc1375ac9badd612c2c4967a341698ee5d364736f6c63430008150033\n}\n",
				"bytecode": {
					"linkReferences": {},
					"object": "608060405234801561000f575f80fd5b5060405161090138038061090183398101604081905261002e9161007e565b60015f81905580546001600160a01b039384166001600160a01b031991821617909155600280549290931691161790556100af565b80516001600160a01b0381168114610079575f80fd5b919050565b5f806040838503121561008f575f80fd5b61009883610063565b91506100a660208401610063565b90509250929050565b610845806100bc5f395ff3fe608060405234801561000f575f80fd5b50600436106100e4575f3560e01c8063a694fc3a11610088578063bea0815111610063578063bea08151146101be578063cd3daf9d146101dd578063f245ace4146101e5578063f43630bd14610204575f80fd5b8063a694fc3a14610190578063adca9b72146101a3578063b88a802f146101b6575f80fd5b80632e1a7d4d116100c35780632e1a7d4d14610142578063399080ec146101575780635997bb371461017f5780636aa0838f14610187575f80fd5b80628cc262146100e85780630bd21c561461010e578063211f6ce114610139575b5f80fd5b6100fb6100f636600461073c565b610223565b6040519081526020015b60405180910390f35b600254610121906001600160a01b031681565b6040516001600160a01b039091168152602001610105565b6100fb60045481565b610155610150366004610769565b61029e565b005b6100fb61016536600461073c565b6001600160a01b03165f9081526008602052604090205490565b6100fb606481565b6100fb60035481565b61015561019e366004610769565b6103f2565b600154610121906001600160a01b031681565b610155610564565b6100fb6101cc36600461073c565b60066020525f908152604090205481565b6100fb610685565b6100fb6101f336600461073c565b60056020525f908152604090205481565b6100fb61021236600461073c565b60086020525f908152604090205481565b6001600160a01b0381165f908152600660209081526040808320546005909252822054670de0b6b3a764000090610258610685565b6102629190610794565b6001600160a01b0385165f9081526008602052604090205461028491906107a7565b61028e91906107be565b61029891906107dd565b92915050565b6102a66106e1565b336102af610685565b600455426003556102bf81610223565b6001600160a01b0382165f90815260066020908152604080832093909355600454600590915291812091909155600780548492906102fe908490610794565b9091555050335f9081526008602052604081208054849290610321908490610794565b9091555050604051829033907ffaf925a2782590ece15b73bcce340ae5a670caabcd87ae54e330c05ab6b92cf4905f90a360015460405163a9059cbb60e01b8152336004820152602481018490525f916001600160a01b03169063a9059cbb906044016020604051808303815f875af11580156103a0573d5f803e3d5ffd5b505050506040513d601f19601f820116820180604052508101906103c491906107f0565b9050806103e4576040516312171d8360e31b815260040160405180910390fd5b50506103ef60015f55565b50565b336103fb610685565b6004554260035561040b81610223565b6001600160a01b0382165f9081526006602090815260408083209390935560045460059091529190205561043d6106e1565b81805f0361045e57604051630f45911f60e41b815260040160405180910390fd5b8260075f82825461046f91906107dd565b9091555050335f90815260086020526040812080548592906104929084906107dd565b9091555050604051839033907f9e71bc8eea02a63969f509818f2dafb9254532904319f9dbda79b67bd34a5f3d905f90a360015460405163a9059cbb60e01b8152306004820152602481018590525f916001600160a01b03169063a9059cbb906044016020604051808303815f875af1158015610511573d5f803e3d5ffd5b505050506040513d601f19601f8201168201806040525081019061053591906107f0565b905080610555576040516312171d8360e31b815260040160405180910390fd5b505061056060015f55565b5050565b61056c6106e1565b33610575610685565b6004554260035561058581610223565b6001600160a01b0382165f90815260066020818152604080842094909455600454600582528484205533808452919052828220805490839055925183927ffc30cddea38e2bf4d6ea7d3f9ed3b6ad7f176419f4963bd81318067a4aee73fe91a360025460405163a9059cbb60e01b8152336004820152602481018390525f916001600160a01b03169063a9059cbb906044016020604051808303815f875af1158015610633573d5f803e3d5ffd5b505050506040513d601f19601f8201168201806040525081019061065791906107f0565b905080610677576040516312171d8360e31b815260040160405180910390fd5b50505061068360015f55565b565b5f6007545f03610696575060045490565b6007546064600354426106a99190610794565b6106b391906107a7565b6106c590670de0b6b3a76400006107a7565b6106cf91906107be565b6004546106dc91906107dd565b905090565b60025f54036107365760405162461bcd60e51b815260206004820152601f60248201527f5265656e7472616e637947756172643a207265656e7472616e742063616c6c00604482015260640160405180910390fd5b60025f55565b5f6020828403121561074c575f80fd5b81356001600160a01b0381168114610762575f80fd5b9392505050565b5f60208284031215610779575f80fd5b5035919050565b634e487b7160e01b5f52601160045260245ffd5b8181038181111561029857610298610780565b808202811582820484141761029857610298610780565b5f826107d857634e487b7160e01b5f52601260045260245ffd5b500490565b8082018082111561029857610298610780565b5f60208284031215610800575f80fd5b81518015158114610762575f80fdfea26469706673582212205beff84cecf97a9b8b63f6f0edcb1bc1375ac9badd612c2c4967a341698ee5d364736f6c63430008150033",
					"opcodes": "PUSH1 0x80 PUSH1 0x40 MSTORE CALLVALUE DUP1 ISZERO PUSH2 0xF JUMPI PUSH0 DUP1 REVERT JUMPDEST POP PUSH1 0x40 MLOAD PUSH2 0x901 CODESIZE SUB DUP1 PUSH2 0x901 DUP4 CODECOPY DUP2 ADD PUSH1 0x40 DUP2 SWAP1 MSTORE PUSH2 0x2E SWAP2 PUSH2 0x7E JUMP JUMPDEST PUSH1 0x1 PUSH0 DUP2 SWAP1 SSTORE DUP1 SLOAD PUSH1 0x1 PUSH1 0x1 PUSH1 0xA0 SHL SUB SWAP4 DUP5 AND PUSH1 0x1 PUSH1 0x1 PUSH1 0xA0 SHL SUB NOT SWAP2 DUP3 AND OR SWAP1 SWAP2 SSTORE PUSH1 0x2 DUP1 SLOAD SWAP3 SWAP1 SWAP4 AND SWAP2 AND OR SWAP1 SSTORE PUSH2 0xAF JUMP JUMPDEST DUP1 MLOAD PUSH1 0x1 PUSH1 0x1 PUSH1 0xA0 SHL SUB DUP2 AND DUP2 EQ PUSH2 0x79 JUMPI PUSH0 DUP1 REVERT JUMPDEST SWAP2 SWAP1 POP JUMP JUMPDEST PUSH0 DUP1 PUSH1 0x40 DUP4 DUP6 SUB SLT ISZERO PUSH2 0x8F JUMPI PUSH0 DUP1 REVERT JUMPDEST PUSH2 0x98 DUP4 PUSH2 0x63 JUMP JUMPDEST SWAP2 POP PUSH2 0xA6 PUSH1 0x20 DUP5 ADD PUSH2 0x63 JUMP JUMPDEST SWAP1 POP SWAP3 POP SWAP3 SWAP1 POP JUMP JUMPDEST PUSH2 0x845 DUP1 PUSH2 0xBC PUSH0 CODECOPY PUSH0 RETURN INVALID PUSH1 0x80 PUSH1 0x40 MSTORE CALLVALUE DUP1 ISZERO PUSH2 0xF JUMPI PUSH0 DUP1 REVERT JUMPDEST POP PUSH1 0x4 CALLDATASIZE LT PUSH2 0xE4 JUMPI PUSH0 CALLDATALOAD PUSH1 0xE0 SHR DUP1 PUSH4 0xA694FC3A GT PUSH2 0x88 JUMPI DUP1 PUSH4 0xBEA08151 GT PUSH2 0x63 JUMPI DUP1 PUSH4 0xBEA08151 EQ PUSH2 0x1BE JUMPI DUP1 PUSH4 0xCD3DAF9D EQ PUSH2 0x1DD JUMPI DUP1 PUSH4 0xF245ACE4 EQ PUSH2 0x1E5 JUMPI DUP1 PUSH4 0xF43630BD EQ PUSH2 0x204 JUMPI PUSH0 DUP1 REVERT JUMPDEST DUP1 PUSH4 0xA694FC3A EQ PUSH2 0x190 JUMPI DUP1 PUSH4 0xADCA9B72 EQ PUSH2 0x1A3 JUMPI DUP1 PUSH4 0xB88A802F EQ PUSH2 0x1B6 JUMPI PUSH0 DUP1 REVERT JUMPDEST DUP1 PUSH4 0x2E1A7D4D GT PUSH2 0xC3 JUMPI DUP1 PUSH4 0x2E1A7D4D EQ PUSH2 0x142 JUMPI DUP1 PUSH4 0x399080EC EQ PUSH2 0x157 JUMPI DUP1 PUSH4 0x5997BB37 EQ PUSH2 0x17F JUMPI DUP1 PUSH4 0x6AA0838F EQ PUSH2 0x187 JUMPI PUSH0 DUP1 REVERT JUMPDEST DUP1 PUSH3 0x8CC262 EQ PUSH2 0xE8 JUMPI DUP1 PUSH4 0xBD21C56 EQ PUSH2 0x10E JUMPI DUP1 PUSH4 0x211F6CE1 EQ PUSH2 0x139 JUMPI JUMPDEST PUSH0 DUP1 REVERT JUMPDEST PUSH2 0xFB PUSH2 0xF6 CALLDATASIZE PUSH1 0x4 PUSH2 0x73C JUMP JUMPDEST PUSH2 0x223 JUMP JUMPDEST PUSH1 0x40 MLOAD SWAP1 DUP2 MSTORE PUSH1 0x20 ADD JUMPDEST PUSH1 0x40 MLOAD DUP1 SWAP2 SUB SWAP1 RETURN JUMPDEST PUSH1 0x2 SLOAD PUSH2 0x121 SWAP1 PUSH1 0x1 PUSH1 0x1 PUSH1 0xA0 SHL SUB AND DUP2 JUMP JUMPDEST PUSH1 0x40 MLOAD PUSH1 0x1 PUSH1 0x1 PUSH1 0xA0 SHL SUB SWAP1 SWAP2 AND DUP2 MSTORE PUSH1 0x20 ADD PUSH2 0x105 JUMP JUMPDEST PUSH2 0xFB PUSH1 0x4 SLOAD DUP2 JUMP JUMPDEST PUSH2 0x155 PUSH2 0x150 CALLDATASIZE PUSH1 0x4 PUSH2 0x769 JUMP JUMPDEST PUSH2 0x29E JUMP JUMPDEST STOP JUMPDEST PUSH2 0xFB PUSH2 0x165 CALLDATASIZE PUSH1 0x4 PUSH2 0x73C JUMP JUMPDEST PUSH1 0x1 PUSH1 0x1 PUSH1 0xA0 SHL SUB AND PUSH0 SWAP1 DUP2 MSTORE PUSH1 0x8 PUSH1 0x20 MSTORE PUSH1 0x40 SWAP1 KECCAK256 SLOAD SWAP1 JUMP JUMPDEST PUSH2 0xFB PUSH1 0x64 DUP2 JUMP JUMPDEST PUSH2 0xFB PUSH1 0x3 SLOAD DUP2 JUMP JUMPDEST PUSH2 0x155 PUSH2 0x19E CALLDATASIZE PUSH1 0x4 PUSH2 0x769 JUMP JUMPDEST PUSH2 0x3F2 JUMP JUMPDEST PUSH1 0x1 SLOAD PUSH2 0x121 SWAP1 PUSH1 0x1 PUSH1 0x1 PUSH1 0xA0 SHL SUB AND DUP2 JUMP JUMPDEST PUSH2 0x155 PUSH2 0x564 JUMP JUMPDEST PUSH2 0xFB PUSH2 0x1CC CALLDATASIZE PUSH1 0x4 PUSH2 0x73C JUMP JUMPDEST PUSH1 0x6 PUSH1 0x20 MSTORE PUSH0 SWAP1 DUP2 MSTORE PUSH1 0x40 SWAP1 KECCAK256 SLOAD DUP2 JUMP JUMPDEST PUSH2 0xFB PUSH2 0x685 JUMP JUMPDEST PUSH2 0xFB PUSH2 0x1F3 CALLDATASIZE PUSH1 0x4 PUSH2 0x73C JUMP JUMPDEST PUSH1 0x5 PUSH1 0x20 MSTORE PUSH0 SWAP1 DUP2 MSTORE PUSH1 0x40 SWAP1 KECCAK256 SLOAD DUP2 JUMP JUMPDEST PUSH2 0xFB PUSH2 0x212 CALLDATASIZE PUSH1 0x4 PUSH2 0x73C JUMP JUMPDEST PUSH1 0x8 PUSH1 0x20 MSTORE PUSH0 SWAP1 DUP2 MSTORE PUSH1 0x40 SWAP1 KECCAK256 SLOAD DUP2 JUMP JUMPDEST PUSH1 0x1 PUSH1 0x1 PUSH1 0xA0 SHL SUB DUP2 AND PUSH0 SWAP1 DUP2 MSTORE PUSH1 0x6 PUSH1 0x20 SWAP1 DUP2 MSTORE PUSH1 0x40 DUP1 DUP4 KECCAK256 SLOAD PUSH1 0x5 SWAP1 SWAP3 MSTORE DUP3 KECCAK256 SLOAD PUSH8 0xDE0B6B3A7640000 SWAP1 PUSH2 0x258 PUSH2 0x685 JUMP JUMPDEST PUSH2 0x262 SWAP2 SWAP1 PUSH2 0x794 JUMP JUMPDEST PUSH1 0x1 PUSH1 0x1 PUSH1 0xA0 SHL SUB DUP6 AND PUSH0 SWAP1 DUP2 MSTORE PUSH1 0x8 PUSH1 0x20 MSTORE PUSH1 0x40 SWAP1 KECCAK256 SLOAD PUSH2 0x284 SWAP2 SWAP1 PUSH2 0x7A7 JUMP JUMPDEST PUSH2 0x28E SWAP2 SWAP1 PUSH2 0x7BE JUMP JUMPDEST PUSH2 0x298 SWAP2 SWAP1 PUSH2 0x7DD JUMP JUMPDEST SWAP3 SWAP2 POP POP JUMP JUMPDEST PUSH2 0x2A6 PUSH2 0x6E1 JUMP JUMPDEST CALLER PUSH2 0x2AF PUSH2 0x685 JUMP JUMPDEST PUSH1 0x4 SSTORE TIMESTAMP PUSH1 0x3 SSTORE PUSH2 0x2BF DUP2 PUSH2 0x223 JUMP JUMPDEST PUSH1 0x1 PUSH1 0x1 PUSH1 0xA0 SHL SUB DUP3 AND PUSH0 SWAP1 DUP2 MSTORE PUSH1 0x6 PUSH1 0x20 SWAP1 DUP2 MSTORE PUSH1 0x40 DUP1 DUP4 KECCAK256 SWAP4 SWAP1 SWAP4 SSTORE PUSH1 0x4 SLOAD PUSH1 0x5 SWAP1 SWAP2 MSTORE SWAP2 DUP2 KECCAK256 SWAP2 SWAP1 SWAP2 SSTORE PUSH1 0x7 DUP1 SLOAD DUP5 SWAP3 SWAP1 PUSH2 0x2FE SWAP1 DUP5 SWAP1 PUSH2 0x794 JUMP JUMPDEST SWAP1 SWAP2 SSTORE POP POP CALLER PUSH0 SWAP1 DUP2 MSTORE PUSH1 0x8 PUSH1 0x20 MSTORE PUSH1 0x40 DUP2 KECCAK256 DUP1 SLOAD DUP5 SWAP3 SWAP1 PUSH2 0x321 SWAP1 DUP5 SWAP1 PUSH2 0x794 JUMP JUMPDEST SWAP1 SWAP2 SSTORE POP POP PUSH1 0x40 MLOAD DUP3 SWAP1 CALLER SWAP1 PUSH32 0xFAF925A2782590ECE15B73BCCE340AE5A670CAABCD87AE54E330C05AB6B92CF4 SWAP1 PUSH0 SWAP1 LOG3 PUSH1 0x1 SLOAD PUSH1 0x40 MLOAD PUSH4 0xA9059CBB PUSH1 0xE0 SHL DUP2 MSTORE CALLER PUSH1 0x4 DUP3 ADD MSTORE PUSH1 0x24 DUP2 ADD DUP5 SWAP1 MSTORE PUSH0 SWAP2 PUSH1 0x1 PUSH1 0x1 PUSH1 0xA0 SHL SUB AND SWAP1 PUSH4 0xA9059CBB SWAP1 PUSH1 0x44 ADD PUSH1 0x20 PUSH1 0x40 MLOAD DUP1 DUP4 SUB DUP2 PUSH0 DUP8 GAS CALL ISZERO DUP1 ISZERO PUSH2 0x3A0 JUMPI RETURNDATASIZE PUSH0 DUP1 RETURNDATACOPY RETURNDATASIZE PUSH0 REVERT JUMPDEST POP POP POP POP PUSH1 0x40 MLOAD RETURNDATASIZE PUSH1 0x1F NOT PUSH1 0x1F DUP3 ADD AND DUP3 ADD DUP1 PUSH1 0x40 MSTORE POP DUP2 ADD SWAP1 PUSH2 0x3C4 SWAP2 SWAP1 PUSH2 0x7F0 JUMP JUMPDEST SWAP1 POP DUP1 PUSH2 0x3E4 JUMPI PUSH1 0x40 MLOAD PUSH4 0x12171D83 PUSH1 0xE3 SHL DUP2 MSTORE PUSH1 0x4 ADD PUSH1 0x40 MLOAD DUP1 SWAP2 SUB SWAP1 REVERT JUMPDEST POP POP PUSH2 0x3EF PUSH1 0x1 PUSH0 SSTORE JUMP JUMPDEST POP JUMP JUMPDEST CALLER PUSH2 0x3FB PUSH2 0x685 JUMP JUMPDEST PUSH1 0x4 SSTORE TIMESTAMP PUSH1 0x3 SSTORE PUSH2 0x40B DUP2 PUSH2 0x223 JUMP JUMPDEST PUSH1 0x1 PUSH1 0x1 PUSH1 0xA0 SHL SUB DUP3 AND PUSH0 SWAP1 DUP2 MSTORE PUSH1 0x6 PUSH1 0x20 SWAP1 DUP2 MSTORE PUSH1 0x40 DUP1 DUP4 KECCAK256 SWAP4 SWAP1 SWAP4 SSTORE PUSH1 0x4 SLOAD PUSH1 0x5 SWAP1 SWAP2 MSTORE SWAP2 SWAP1 KECCAK256 SSTORE PUSH2 0x43D PUSH2 0x6E1 JUMP JUMPDEST DUP2 DUP1 PUSH0 SUB PUSH2 0x45E JUMPI PUSH1 0x40 MLOAD PUSH4 0xF45911F PUSH1 0xE4 SHL DUP2 MSTORE PUSH1 0x4 ADD PUSH1 0x40 MLOAD DUP1 SWAP2 SUB SWAP1 REVERT JUMPDEST DUP3 PUSH1 0x7 PUSH0 DUP3 DUP3 SLOAD PUSH2 0x46F SWAP2 SWAP1 PUSH2 0x7DD JUMP JUMPDEST SWAP1 SWAP2 SSTORE POP POP CALLER PUSH0 SWAP1 DUP2 MSTORE PUSH1 0x8 PUSH1 0x20 MSTORE PUSH1 0x40 DUP2 KECCAK256 DUP1 SLOAD DUP6 SWAP3 SWAP1 PUSH2 0x492 SWAP1 DUP5 SWAP1 PUSH2 0x7DD JUMP JUMPDEST SWAP1 SWAP2 SSTORE POP POP PUSH1 0x40 MLOAD DUP4 SWAP1 CALLER SWAP1 PUSH32 0x9E71BC8EEA02A63969F509818F2DAFB9254532904319F9DBDA79B67BD34A5F3D SWAP1 PUSH0 SWAP1 LOG3 PUSH1 0x1 SLOAD PUSH1 0x40 MLOAD PUSH4 0xA9059CBB PUSH1 0xE0 SHL DUP2 MSTORE ADDRESS PUSH1 0x4 DUP3 ADD MSTORE PUSH1 0x24 DUP2 ADD DUP6 SWAP1 MSTORE PUSH0 SWAP2 PUSH1 0x1 PUSH1 0x1 PUSH1 0xA0 SHL SUB AND SWAP1 PUSH4 0xA9059CBB SWAP1 PUSH1 0x44 ADD PUSH1 0x20 PUSH1 0x40 MLOAD DUP1 DUP4 SUB DUP2 PUSH0 DUP8 GAS CALL ISZERO DUP1 ISZERO PUSH2 0x511 JUMPI RETURNDATASIZE PUSH0 DUP1 RETURNDATACOPY RETURNDATASIZE PUSH0 REVERT JUMPDEST POP POP POP POP PUSH1 0x40 MLOAD RETURNDATASIZE PUSH1 0x1F NOT PUSH1 0x1F DUP3 ADD AND DUP3 ADD DUP1 PUSH1 0x40 MSTORE POP DUP2 ADD SWAP1 PUSH2 0x535 SWAP2 SWAP1 PUSH2 0x7F0 JUMP JUMPDEST SWAP1 POP DUP1 PUSH2 0x555 JUMPI PUSH1 0x40 MLOAD PUSH4 0x12171D83 PUSH1 0xE3 SHL DUP2 MSTORE PUSH1 0x4 ADD PUSH1 0x40 MLOAD DUP1 SWAP2 SUB SWAP1 REVERT JUMPDEST POP POP PUSH2 0x560 PUSH1 0x1 PUSH0 SSTORE JUMP JUMPDEST POP POP JUMP JUMPDEST PUSH2 0x56C PUSH2 0x6E1 JUMP JUMPDEST CALLER PUSH2 0x575 PUSH2 0x685 JUMP JUMPDEST PUSH1 0x4 SSTORE TIMESTAMP PUSH1 0x3 SSTORE PUSH2 0x585 DUP2 PUSH2 0x223 JUMP JUMPDEST PUSH1 0x1 PUSH1 0x1 PUSH1 0xA0 SHL SUB DUP3 AND PUSH0 SWAP1 DUP2 MSTORE PUSH1 0x6 PUSH1 0x20 DUP2 DUP2 MSTORE PUSH1 0x40 DUP1 DUP5 KECCAK256 SWAP5 SWAP1 SWAP5 SSTORE PUSH1 0x4 SLOAD PUSH1 0x5 DUP3 MSTORE DUP5 DUP5 KECCAK256 SSTORE CALLER DUP1 DUP5 MSTORE SWAP2 SWAP1 MSTORE DUP3 DUP3 KECCAK256 DUP1 SLOAD SWAP1 DUP4 SWAP1 SSTORE SWAP3 MLOAD DUP4 SWAP3 PUSH32 0xFC30CDDEA38E2BF4D6EA7D3F9ED3B6AD7F176419F4963BD81318067A4AEE73FE SWAP2 LOG3 PUSH1 0x2 SLOAD PUSH1 0x40 MLOAD PUSH4 0xA9059CBB PUSH1 0xE0 SHL DUP2 MSTORE CALLER PUSH1 0x4 DUP3 ADD MSTORE PUSH1 0x24 DUP2 ADD DUP4 SWAP1 MSTORE PUSH0 SWAP2 PUSH1 0x1 PUSH1 0x1 PUSH1 0xA0 SHL SUB AND SWAP1 PUSH4 0xA9059CBB SWAP1 PUSH1 0x44 ADD PUSH1 0x20 PUSH1 0x40 MLOAD DUP1 DUP4 SUB DUP2 PUSH0 DUP8 GAS CALL ISZERO DUP1 ISZERO PUSH2 0x633 JUMPI RETURNDATASIZE PUSH0 DUP1 RETURNDATACOPY RETURNDATASIZE PUSH0 REVERT JUMPDEST POP POP POP POP PUSH1 0x40 MLOAD RETURNDATASIZE PUSH1 0x1F NOT PUSH1 0x1F DUP3 ADD AND DUP3 ADD DUP1 PUSH1 0x40 MSTORE POP DUP2 ADD SWAP1 PUSH2 0x657 SWAP2 SWAP1 PUSH2 0x7F0 JUMP JUMPDEST SWAP1 POP DUP1 PUSH2 0x677 JUMPI PUSH1 0x40 MLOAD PUSH4 0x12171D83 PUSH1 0xE3 SHL DUP2 MSTORE PUSH1 0x4 ADD PUSH1 0x40 MLOAD DUP1 SWAP2 SUB SWAP1 REVERT JUMPDEST POP POP POP PUSH2 0x683 PUSH1 0x1 PUSH0 SSTORE JUMP JUMPDEST JUMP JUMPDEST PUSH0 PUSH1 0x7 SLOAD PUSH0 SUB PUSH2 0x696 JUMPI POP PUSH1 0x4 SLOAD SWAP1 JUMP JUMPDEST PUSH1 0x7 SLOAD PUSH1 0x64 PUSH1 0x3 SLOAD TIMESTAMP PUSH2 0x6A9 SWAP2 SWAP1 PUSH2 0x794 JUMP JUMPDEST PUSH2 0x6B3 SWAP2 SWAP1 PUSH2 0x7A7 JUMP JUMPDEST PUSH2 0x6C5 SWAP1 PUSH8 0xDE0B6B3A7640000 PUSH2 0x7A7 JUMP JUMPDEST PUSH2 0x6CF SWAP2 SWAP1 PUSH2 0x7BE JUMP JUMPDEST PUSH1 0x4 SLOAD PUSH2 0x6DC SWAP2 SWAP1 PUSH2 0x7DD JUMP JUMPDEST SWAP1 POP SWAP1 JUMP JUMPDEST PUSH1 0x2 PUSH0 SLOAD SUB PUSH2 0x736 JUMPI PUSH1 0x40 MLOAD PUSH3 0x461BCD PUSH1 0xE5 SHL DUP2 MSTORE PUSH1 0x20 PUSH1 0x4 DUP3 ADD MSTORE PUSH1 0x1F PUSH1 0x24 DUP3 ADD MSTORE PUSH32 0x5265656E7472616E637947756172643A207265656E7472616E742063616C6C00 PUSH1 0x44 DUP3 ADD MSTORE PUSH1 0x64 ADD PUSH1 0x40 MLOAD DUP1 SWAP2 SUB SWAP1 REVERT JUMPDEST PUSH1 0x2 PUSH0 SSTORE JUMP JUMPDEST PUSH0 PUSH1 0x20 DUP3 DUP5 SUB SLT ISZERO PUSH2 0x74C JUMPI PUSH0 DUP1 REVERT JUMPDEST DUP2 CALLDATALOAD PUSH1 0x1 PUSH1 0x1 PUSH1 0xA0 SHL SUB DUP2 AND DUP2 EQ PUSH2 0x762 JUMPI PUSH0 DUP1 REVERT JUMPDEST SWAP4 SWAP3 POP POP POP JUMP JUMPDEST PUSH0 PUSH1 0x20 DUP3 DUP5 SUB SLT ISZERO PUSH2 0x779 JUMPI PUSH0 DUP1 REVERT JUMPDEST POP CALLDATALOAD SWAP2 SWAP1 POP JUMP JUMPDEST PUSH4 0x4E487B71 PUSH1 0xE0 SHL PUSH0 MSTORE PUSH1 0x11 PUSH1 0x4 MSTORE PUSH1 0x24 PUSH0 REVERT JUMPDEST DUP2 DUP2 SUB DUP2 DUP2 GT ISZERO PUSH2 0x298 JUMPI PUSH2 0x298 PUSH2 0x780 JUMP JUMPDEST DUP1 DUP3 MUL DUP2 ISZERO DUP3 DUP3 DIV DUP5 EQ OR PUSH2 0x298 JUMPI PUSH2 0x298 PUSH2 0x780 JUMP JUMPDEST PUSH0 DUP3 PUSH2 0x7D8 JUMPI PUSH4 0x4E487B71 PUSH1 0xE0 SHL PUSH0 MSTORE PUSH1 0x12 PUSH1 0x4 MSTORE PUSH1 0x24 PUSH0 REVERT JUMPDEST POP DIV SWAP1 JUMP JUMPDEST DUP1 DUP3 ADD DUP1 DUP3 GT ISZERO PUSH2 0x298 JUMPI PUSH2 0x298 PUSH2 0x780 JUMP JUMPDEST PUSH0 PUSH1 0x20 DUP3 DUP5 SUB SLT ISZERO PUSH2 0x800 JUMPI PUSH0 DUP1 REVERT JUMPDEST DUP2 MLOAD DUP1 ISZERO ISZERO DUP2 EQ PUSH2 0x762 JUMPI PUSH0 DUP1 REVERT INVALID LOG2 PUSH5 0x6970667358 0x22 SLT KECCAK256 JUMPDEST 0xEF 0xF8 0x4C 0xEC 0xF9 PUSH27 0x9B8B63F6F0EDCB1BC1375AC9BADD612C2C4967A341698EE5D36473 PUSH16 0x6C634300081500330000000000000000 "
				},
				"gasEstimates": {
					"creation": {
						"codeDepositCost": "423400",
						"executionCost": "infinite",
						"totalCost": "infinite"
					},
					"external": {
						"REWARD_RATE()": "250",
						"claimReward()": "infinite",
						"earned(address)": "infinite",
						"getStaked(address)": "2533",
						"rewardPerToken()": "infinite",
						"s_balaces(address)": "2558",
						"s_lastUpdateTime()": "2372",
						"s_rewarPerTokenStored()": "2351",
						"s_rewards(address)": "2492",
						"s_rewardsToken()": "2382",
						"s_stakingToken()": "2381",
						"s_userRewardPerTokenPaid(address)": "2536",
						"stake(uint256)": "infinite",
						"withdraw(uint256)": "infinite"
					}
				},
				"methodIdentifiers": {
					"REWARD_RATE()": "5997bb37",
					"claimReward()": "b88a802f",
					"earned(address)": "008cc262",
					"getStaked(address)": "399080ec",
					"rewardPerToken()": "cd3daf9d",
					"s_balaces(address)": "f43630bd",
					"s_lastUpdateTime()": "6aa0838f",
					"s_rewarPerTokenStored()": "211f6ce1",
					"s_rewards(address)": "bea08151",
					"s_rewardsToken()": "0bd21c56",
					"s_stakingToken()": "adca9b72",
					"s_userRewardPerTokenPaid(address)": "f245ace4",
					"stake(uint256)": "a694fc3a",
					"withdraw(uint256)": "2e1a7d4d"
				}
			},
			"storageLayout": {
				"storage": [
					{
						"astId": 147,
						"contract": "contracts/Dapps/Staking.sol:staking",
						"label": "_status",
						"offset": 0,
						"slot": "0",
						"type": "t_uint256"
					},
					{
						"astId": 863,
						"contract": "contracts/Dapps/Staking.sol:staking",
						"label": "s_stakingToken",
						"offset": 0,
						"slot": "1",
						"type": "t_contract(IERC20)794"
					},
					{
						"astId": 866,
						"contract": "contracts/Dapps/Staking.sol:staking",
						"label": "s_rewardsToken",
						"offset": 0,
						"slot": "2",
						"type": "t_contract(IERC20)794"
					},
					{
						"astId": 871,
						"contract": "contracts/Dapps/Staking.sol:staking",
						"label": "s_lastUpdateTime",
						"offset": 0,
						"slot": "3",
						"type": "t_uint256"
					},
					{
						"astId": 873,
						"contract": "contracts/Dapps/Staking.sol:staking",
						"label": "s_rewarPerTokenStored",
						"offset": 0,
						"slot": "4",
						"type": "t_uint256"
					},
					{
						"astId": 877,
						"contract": "contracts/Dapps/Staking.sol:staking",
						"label": "s_userRewardPerTokenPaid",
						"offset": 0,
						"slot": "5",
						"type": "t_mapping(t_address,t_uint256)"
					},
					{
						"astId": 881,
						"contract": "contracts/Dapps/Staking.sol:staking",
						"label": "s_rewards",
						"offset": 0,
						"slot": "6",
						"type": "t_mapping(t_address,t_uint256)"
					},
					{
						"astId": 883,
						"contract": "contracts/Dapps/Staking.sol:staking",
						"label": "s_totalSupply",
						"offset": 0,
						"slot": "7",
						"type": "t_uint256"
					},
					{
						"astId": 887,
						"contract": "contracts/Dapps/Staking.sol:staking",
						"label": "s_balaces",
						"offset": 0,
						"slot": "8",
						"type": "t_mapping(t_address,t_uint256)"
					}
				],
				"types": {
					"t_address": {
						"encoding": "inplace",
						"label": "address",
						"numberOfBytes": "20"
					},
					"t_contract(IERC20)794": {
						"encoding": "inplace",
						"label": "contract IERC20",
						"numberOfBytes": "20"
					},
					"t_mapping(t_address,t_uint256)": {
						"encoding": "mapping",
						"key": "t_address",
						"label": "mapping(address => uint256)",
						"numberOfBytes": "32",
						"value": "t_uint256"
					},
					"t_uint256": {
						"encoding": "inplace",
						"label": "uint256",
						"numberOfBytes": "32"
					}
				}
			},
			"userdoc": {
				"kind": "user",
				"methods": {},
				"version": 1
			}
		}
	}
}