{
	"contracts/Dapps/ethstore.sol": {
		"A": {
			"abi": [
				{
					"inputs": [
						{
							"internalType": "address",
							"name": "",
							"type": "address"
						}
					],
					"name": "balances",
					"outputs": [
						{
							"internalType": "uint256",
							"name": "",
							"type": "uint256"
						}
					],
					"stateMutability": "view",
					"type": "function"
				},
				{
					"inputs": [],
					"name": "deposit",
					"outputs": [],
					"stateMutability": "payable",
					"type": "function"
				},
				{
					"inputs": [],
					"name": "getbalance",
					"outputs": [
						{
							"internalType": "uint256",
							"name": "",
							"type": "uint256"
						}
					],
					"stateMutability": "view",
					"type": "function"
				},
				{
					"inputs": [],
					"name": "withdraw",
					"outputs": [],
					"stateMutability": "nonpayable",
					"type": "function"
				}
			],
			"devdoc": {
				"kind": "dev",
				"methods": {},
				"version": 1
			},
			"evm": {
				"assembly": "    /* \"contracts/Dapps/ethstore.sol\":61:652  contract A {... */\n  mstore(0x40, 0x80)\n  callvalue\n  dup1\n  iszero\n  tag_1\n  jumpi\n  0x00\n  dup1\n  revert\ntag_1:\n  pop\n  dataSize(sub_0)\n  dup1\n  dataOffset(sub_0)\n  0x00\n  codecopy\n  0x00\n  return\nstop\n\nsub_0: assembly {\n        /* \"contracts/Dapps/ethstore.sol\":61:652  contract A {... */\n      mstore(0x40, 0x80)\n      jumpi(tag_1, lt(calldatasize, 0x04))\n      shr(0xe0, calldataload(0x00))\n      dup1\n      0x27e235e3\n      eq\n      tag_2\n      jumpi\n      dup1\n      0x3ccfd60b\n      eq\n      tag_3\n      jumpi\n      dup1\n      0x4d9b3d5d\n      eq\n      tag_4\n      jumpi\n      dup1\n      0xd0e30db0\n      eq\n      tag_5\n      jumpi\n    tag_1:\n      0x00\n      dup1\n      revert\n        /* \"contracts/Dapps/ethstore.sol\":78:119  mapping (address => uint) public balances */\n    tag_2:\n      callvalue\n      dup1\n      iszero\n      tag_6\n      jumpi\n      0x00\n      dup1\n      revert\n    tag_6:\n      pop\n      tag_7\n      tag_8\n      calldatasize\n      0x04\n      tag_9\n      jump\t// in\n    tag_8:\n      0x00\n      0x20\n      dup2\n      swap1\n      mstore\n      swap1\n      dup2\n      mstore\n      0x40\n      swap1\n      keccak256\n      sload\n      dup2\n      jump\n    tag_7:\n      mload(0x40)\n        /* \"#utility.yul\":474:499   */\n      swap1\n      dup2\n      mstore\n        /* \"#utility.yul\":462:464   */\n      0x20\n        /* \"#utility.yul\":447:465   */\n      add\n        /* \"contracts/Dapps/ethstore.sol\":78:119  mapping (address => uint) public balances */\n      mload(0x40)\n      dup1\n      swap2\n      sub\n      swap1\n      return\n        /* \"contracts/Dapps/ethstore.sol\":216:551  function withdraw() public {... */\n    tag_3:\n      callvalue\n      dup1\n      iszero\n      tag_13\n      jumpi\n      0x00\n      dup1\n      revert\n    tag_13:\n      pop\n      tag_14\n      tag_15\n      jump\t// in\n    tag_14:\n      stop\n        /* \"contracts/Dapps/ethstore.sol\":557:650  function getbalance() public view returns(uint) {... */\n    tag_4:\n      callvalue\n      dup1\n      iszero\n      tag_16\n      jumpi\n      0x00\n      dup1\n      revert\n    tag_16:\n      pop\n        /* \"contracts/Dapps/ethstore.sol\":622:643  address(this).balance */\n      selfbalance\n        /* \"contracts/Dapps/ethstore.sol\":557:650  function getbalance() public view returns(uint) {... */\n      jump(tag_7)\n        /* \"contracts/Dapps/ethstore.sol\":126:210  function deposit() public payable {... */\n    tag_5:\n      tag_14\n      tag_21\n      jump\t// in\n        /* \"contracts/Dapps/ethstore.sol\":216:551  function withdraw() public {... */\n    tag_15:\n        /* \"contracts/Dapps/ethstore.sol\":276:286  msg.sender */\n      caller\n        /* \"contracts/Dapps/ethstore.sol\":253:264  uint256 bal */\n      0x00\n        /* \"contracts/Dapps/ethstore.sol\":267:287  balances[msg.sender] */\n      swap1\n      dup2\n      mstore\n      0x20\n      dup2\n      swap1\n      mstore\n      0x40\n      swap1\n      keccak256\n      sload\n        /* \"contracts/Dapps/ethstore.sol\":305:310  bal>0 */\n      dup1\n        /* \"contracts/Dapps/ethstore.sol\":297:311  require(bal>0) */\n      tag_23\n      jumpi\n      0x00\n      dup1\n      revert\n    tag_23:\n        /* \"contracts/Dapps/ethstore.sol\":446:476  msg.sender.call{value:bal}(\"\") */\n      mload(0x40)\n        /* \"contracts/Dapps/ethstore.sol\":432:441  bool sent */\n      0x00\n      swap1\n        /* \"contracts/Dapps/ethstore.sol\":446:456  msg.sender */\n      caller\n      swap1\n        /* \"contracts/Dapps/ethstore.sol\":468:471  bal */\n      dup4\n      swap1\n        /* \"contracts/Dapps/ethstore.sol\":432:441  bool sent */\n      dup4\n        /* \"contracts/Dapps/ethstore.sol\":446:476  msg.sender.call{value:bal}(\"\") */\n      dup2\n        /* \"contracts/Dapps/ethstore.sol\":432:441  bool sent */\n      dup2\n        /* \"contracts/Dapps/ethstore.sol\":446:476  msg.sender.call{value:bal}(\"\") */\n      dup2\n        /* \"contracts/Dapps/ethstore.sol\":468:471  bal */\n      dup6\n        /* \"contracts/Dapps/ethstore.sol\":446:456  msg.sender */\n      dup8\n        /* \"contracts/Dapps/ethstore.sol\":446:476  msg.sender.call{value:bal}(\"\") */\n      gas\n      call\n      swap3\n      pop\n      pop\n      pop\n      returndatasize\n      dup1\n      0x00\n      dup2\n      eq\n      tag_28\n      jumpi\n      mload(0x40)\n      swap2\n      pop\n      and(add(returndatasize, 0x3f), not(0x1f))\n      dup3\n      add\n      0x40\n      mstore\n      returndatasize\n      dup3\n      mstore\n      returndatasize\n      0x00\n      0x20\n      dup5\n      add\n      returndatacopy\n      jump(tag_27)\n    tag_28:\n      0x60\n      swap2\n      pop\n    tag_27:\n      pop\n        /* \"contracts/Dapps/ethstore.sol\":431:476  (bool sent,) = msg.sender.call{value:bal}(\"\") */\n      pop\n      swap1\n      pop\n        /* \"contracts/Dapps/ethstore.sol\":494:498  sent */\n      dup1\n        /* \"contracts/Dapps/ethstore.sol\":486:510  require(sent, \"failure\") */\n      tag_29\n      jumpi\n      mload(0x40)\n      shl(0xe5, 0x461bcd)\n      dup2\n      mstore\n        /* \"#utility.yul\":922:924   */\n      0x20\n        /* \"contracts/Dapps/ethstore.sol\":486:510  require(sent, \"failure\") */\n      0x04\n      dup3\n      add\n        /* \"#utility.yul\":904:925   */\n      mstore\n        /* \"#utility.yul\":961:962   */\n      0x07\n        /* \"#utility.yul\":941:959   */\n      0x24\n      dup3\n      add\n        /* \"#utility.yul\":934:963   */\n      mstore\n      shl(0xc8, 0x6661696c757265)\n        /* \"#utility.yul\":979:997   */\n      0x44\n      dup3\n      add\n        /* \"#utility.yul\":972:1009   */\n      mstore\n        /* \"#utility.yul\":1026:1044   */\n      0x64\n      add\n        /* \"contracts/Dapps/ethstore.sol\":486:510  require(sent, \"failure\") */\n      mload(0x40)\n      dup1\n      swap2\n      sub\n      swap1\n      revert\n    tag_29:\n      pop\n      pop\n        /* \"contracts/Dapps/ethstore.sol\":529:539  msg.sender */\n      caller\n        /* \"contracts/Dapps/ethstore.sol\":543:544  0 */\n      0x00\n        /* \"contracts/Dapps/ethstore.sol\":520:540  balances[msg.sender] */\n      swap1\n      dup2\n      mstore\n      0x20\n      dup2\n      swap1\n      mstore\n      0x40\n      dup2\n      keccak256\n        /* \"contracts/Dapps/ethstore.sol\":520:544  balances[msg.sender] = 0 */\n      sstore\n        /* \"contracts/Dapps/ethstore.sol\":216:551  function withdraw() public {... */\n      jump\t// out\n        /* \"contracts/Dapps/ethstore.sol\":126:210  function deposit() public payable {... */\n    tag_21:\n        /* \"contracts/Dapps/ethstore.sol\":179:189  msg.sender */\n      caller\n        /* \"contracts/Dapps/ethstore.sol\":170:178  balances */\n      0x00\n        /* \"contracts/Dapps/ethstore.sol\":170:190  balances[msg.sender] */\n      swap1\n      dup2\n      mstore\n      0x20\n      dup2\n      swap1\n      mstore\n      0x40\n      dup2\n      keccak256\n        /* \"contracts/Dapps/ethstore.sol\":170:203  balances[msg.sender] += msg.value */\n      dup1\n      sload\n        /* \"contracts/Dapps/ethstore.sol\":194:203  msg.value */\n      callvalue\n      swap3\n        /* \"contracts/Dapps/ethstore.sol\":170:178  balances */\n      swap1\n        /* \"contracts/Dapps/ethstore.sol\":170:203  balances[msg.sender] += msg.value */\n      tag_34\n      swap1\n        /* \"contracts/Dapps/ethstore.sol\":194:203  msg.value */\n      dup5\n      swap1\n        /* \"contracts/Dapps/ethstore.sol\":170:203  balances[msg.sender] += msg.value */\n      tag_35\n      jump\t// in\n    tag_34:\n      swap1\n      swap2\n      sstore\n      pop\n      pop\n        /* \"contracts/Dapps/ethstore.sol\":126:210  function deposit() public payable {... */\n      jump\t// out\n        /* \"#utility.yul\":14:323   */\n    tag_9:\n        /* \"#utility.yul\":73:79   */\n      0x00\n        /* \"#utility.yul\":126:128   */\n      0x20\n        /* \"#utility.yul\":114:123   */\n      dup3\n        /* \"#utility.yul\":105:112   */\n      dup5\n        /* \"#utility.yul\":101:124   */\n      sub\n        /* \"#utility.yul\":97:129   */\n      slt\n        /* \"#utility.yul\":94:146   */\n      iszero\n      tag_38\n      jumpi\n        /* \"#utility.yul\":142:143   */\n      0x00\n        /* \"#utility.yul\":139:140   */\n      dup1\n        /* \"#utility.yul\":132:144   */\n      revert\n        /* \"#utility.yul\":94:146   */\n    tag_38:\n        /* \"#utility.yul\":181:190   */\n      dup2\n        /* \"#utility.yul\":168:191   */\n      calldataload\n        /* \"#utility.yul\":231:273   */\n      0xffffffffffffffffffffffffffffffffffffffff\n        /* \"#utility.yul\":224:229   */\n      dup2\n        /* \"#utility.yul\":220:274   */\n      and\n        /* \"#utility.yul\":213:218   */\n      dup2\n        /* \"#utility.yul\":210:275   */\n      eq\n        /* \"#utility.yul\":200:293   */\n      tag_39\n      jumpi\n        /* \"#utility.yul\":289:290   */\n      0x00\n        /* \"#utility.yul\":286:287   */\n      dup1\n        /* \"#utility.yul\":279:291   */\n      revert\n        /* \"#utility.yul\":200:293   */\n    tag_39:\n        /* \"#utility.yul\":312:317   */\n      swap4\n        /* \"#utility.yul\":14:323   */\n      swap3\n      pop\n      pop\n      pop\n      jump\t// out\n        /* \"#utility.yul\":1055:1277   */\n    tag_35:\n        /* \"#utility.yul\":1120:1129   */\n      dup1\n      dup3\n      add\n        /* \"#utility.yul\":1141:1151   */\n      dup1\n      dup3\n      gt\n        /* \"#utility.yul\":1138:1271   */\n      iszero\n      tag_44\n      jumpi\n        /* \"#utility.yul\":1193:1203   */\n      0x4e487b71\n        /* \"#utility.yul\":1188:1191   */\n      0xe0\n        /* \"#utility.yul\":1184:1204   */\n      shl\n        /* \"#utility.yul\":1181:1182   */\n      0x00\n        /* \"#utility.yul\":1174:1205   */\n      mstore\n        /* \"#utility.yul\":1228:1232   */\n      0x11\n        /* \"#utility.yul\":1225:1226   */\n      0x04\n        /* \"#utility.yul\":1218:1233   */\n      mstore\n        /* \"#utility.yul\":1256:1260   */\n      0x24\n        /* \"#utility.yul\":1253:1254   */\n      0x00\n        /* \"#utility.yul\":1246:1261   */\n      revert\n        /* \"#utility.yul\":1138:1271   */\n    tag_44:\n        /* \"#utility.yul\":1055:1277   */\n      swap3\n      swap2\n      pop\n      pop\n      jump\t// out\n\n    auxdata: 0xa2646970667358221220b89318f95412342cc6230bc75e3f2507029f844fc7553f059744311eb8f06d5f64736f6c63430008150033\n}\n",
				"bytecode": {
					"linkReferences": {},
					"object": "608060405234801561000f575f80fd5b506102178061001d5f395ff3fe60806040526004361061003e575f3560e01c806327e235e3146100425780633ccfd60b1461007f5780634d9b3d5d14610095578063d0e30db0146100a7575b5f80fd5b34801561004d575f80fd5b5061006d61005c366004610182565b5f6020819052908152604090205481565b60405190815260200160405180910390f35b34801561008a575f80fd5b506100936100af565b005b3480156100a0575f80fd5b504761006d565b61009361015d565b335f90815260208190526040902054806100c7575f80fd5b6040515f90339083908381818185875af1925050503d805f8114610106576040519150601f19603f3d011682016040523d82523d5f602084013e61010b565b606091505b505090508061014a5760405162461bcd60e51b81526020600482015260076024820152666661696c75726560c81b604482015260640160405180910390fd5b5050335f90815260208190526040812055565b335f908152602081905260408120805434929061017b9084906101bc565b9091555050565b5f60208284031215610192575f80fd5b813573ffffffffffffffffffffffffffffffffffffffff811681146101b5575f80fd5b9392505050565b808201808211156101db57634e487b7160e01b5f52601160045260245ffd5b9291505056fea2646970667358221220b89318f95412342cc6230bc75e3f2507029f844fc7553f059744311eb8f06d5f64736f6c63430008150033",
					"opcodes": "PUSH1 0x80 PUSH1 0x40 MSTORE CALLVALUE DUP1 ISZERO PUSH2 0xF JUMPI PUSH0 DUP1 REVERT JUMPDEST POP PUSH2 0x217 DUP1 PUSH2 0x1D PUSH0 CODECOPY PUSH0 RETURN INVALID PUSH1 0x80 PUSH1 0x40 MSTORE PUSH1 0x4 CALLDATASIZE LT PUSH2 0x3E JUMPI PUSH0 CALLDATALOAD PUSH1 0xE0 SHR DUP1 PUSH4 0x27E235E3 EQ PUSH2 0x42 JUMPI DUP1 PUSH4 0x3CCFD60B EQ PUSH2 0x7F JUMPI DUP1 PUSH4 0x4D9B3D5D EQ PUSH2 0x95 JUMPI DUP1 PUSH4 0xD0E30DB0 EQ PUSH2 0xA7 JUMPI JUMPDEST PUSH0 DUP1 REVERT JUMPDEST CALLVALUE DUP1 ISZERO PUSH2 0x4D JUMPI PUSH0 DUP1 REVERT JUMPDEST POP PUSH2 0x6D PUSH2 0x5C CALLDATASIZE PUSH1 0x4 PUSH2 0x182 JUMP JUMPDEST PUSH0 PUSH1 0x20 DUP2 SWAP1 MSTORE SWAP1 DUP2 MSTORE PUSH1 0x40 SWAP1 KECCAK256 SLOAD DUP2 JUMP JUMPDEST PUSH1 0x40 MLOAD SWAP1 DUP2 MSTORE PUSH1 0x20 ADD PUSH1 0x40 MLOAD DUP1 SWAP2 SUB SWAP1 RETURN JUMPDEST CALLVALUE DUP1 ISZERO PUSH2 0x8A JUMPI PUSH0 DUP1 REVERT JUMPDEST POP PUSH2 0x93 PUSH2 0xAF JUMP JUMPDEST STOP JUMPDEST CALLVALUE DUP1 ISZERO PUSH2 0xA0 JUMPI PUSH0 DUP1 REVERT JUMPDEST POP SELFBALANCE PUSH2 0x6D JUMP JUMPDEST PUSH2 0x93 PUSH2 0x15D JUMP JUMPDEST CALLER PUSH0 SWAP1 DUP2 MSTORE PUSH1 0x20 DUP2 SWAP1 MSTORE PUSH1 0x40 SWAP1 KECCAK256 SLOAD DUP1 PUSH2 0xC7 JUMPI PUSH0 DUP1 REVERT JUMPDEST PUSH1 0x40 MLOAD PUSH0 SWAP1 CALLER SWAP1 DUP4 SWAP1 DUP4 DUP2 DUP2 DUP2 DUP6 DUP8 GAS CALL SWAP3 POP POP POP RETURNDATASIZE DUP1 PUSH0 DUP2 EQ PUSH2 0x106 JUMPI PUSH1 0x40 MLOAD SWAP2 POP PUSH1 0x1F NOT PUSH1 0x3F RETURNDATASIZE ADD AND DUP3 ADD PUSH1 0x40 MSTORE RETURNDATASIZE DUP3 MSTORE RETURNDATASIZE PUSH0 PUSH1 0x20 DUP5 ADD RETURNDATACOPY PUSH2 0x10B JUMP JUMPDEST PUSH1 0x60 SWAP2 POP JUMPDEST POP POP SWAP1 POP DUP1 PUSH2 0x14A JUMPI PUSH1 0x40 MLOAD PUSH3 0x461BCD PUSH1 0xE5 SHL DUP2 MSTORE PUSH1 0x20 PUSH1 0x4 DUP3 ADD MSTORE PUSH1 0x7 PUSH1 0x24 DUP3 ADD MSTORE PUSH7 0x6661696C757265 PUSH1 0xC8 SHL PUSH1 0x44 DUP3 ADD MSTORE PUSH1 0x64 ADD PUSH1 0x40 MLOAD DUP1 SWAP2 SUB SWAP1 REVERT JUMPDEST POP POP CALLER PUSH0 SWAP1 DUP2 MSTORE PUSH1 0x20 DUP2 SWAP1 MSTORE PUSH1 0x40 DUP2 KECCAK256 SSTORE JUMP JUMPDEST CALLER PUSH0 SWAP1 DUP2 MSTORE PUSH1 0x20 DUP2 SWAP1 MSTORE PUSH1 0x40 DUP2 KECCAK256 DUP1 SLOAD CALLVALUE SWAP3 SWAP1 PUSH2 0x17B SWAP1 DUP5 SWAP1 PUSH2 0x1BC JUMP JUMPDEST SWAP1 SWAP2 SSTORE POP POP JUMP JUMPDEST PUSH0 PUSH1 0x20 DUP3 DUP5 SUB SLT ISZERO PUSH2 0x192 JUMPI PUSH0 DUP1 REVERT JUMPDEST DUP2 CALLDATALOAD PUSH20 0xFFFFFFFFFFFFFFFFFFFFFFFFFFFFFFFFFFFFFFFF DUP2 AND DUP2 EQ PUSH2 0x1B5 JUMPI PUSH0 DUP1 REVERT JUMPDEST SWAP4 SWAP3 POP POP POP JUMP JUMPDEST DUP1 DUP3 ADD DUP1 DUP3 GT ISZERO PUSH2 0x1DB JUMPI PUSH4 0x4E487B71 PUSH1 0xE0 SHL PUSH0 MSTORE PUSH1 0x11 PUSH1 0x4 MSTORE PUSH1 0x24 PUSH0 REVERT JUMPDEST SWAP3 SWAP2 POP POP JUMP INVALID LOG2 PUSH5 0x6970667358 0x22 SLT KECCAK256 0xB8 SWAP4 XOR 0xF9 SLOAD SLT CALLVALUE 0x2C 0xC6 0x23 SIGNEXTEND 0xC7 0x5E EXTCODEHASH 0x25 SMOD MUL SWAP16 DUP5 0x4F 0xC7 SSTORE EXTCODEHASH SDIV SWAP8 PREVRANDAO BALANCE 0x1E 0xB8 CREATE PUSH14 0x5F64736F6C634300081500330000 "
				},
				"gasEstimates": {
					"creation": {
						"codeDepositCost": "107000",
						"executionCost": "151",
						"totalCost": "107151"
					},
					"external": {
						"balances(address)": "2438",
						"deposit()": "24535",
						"getbalance()": "203",
						"withdraw()": "infinite"
					}
				},
				"methodIdentifiers": {
					"balances(address)": "27e235e3",
					"deposit()": "d0e30db0",
					"getbalance()": "4d9b3d5d",
					"withdraw()": "3ccfd60b"
				}
			},
			"storageLayout": {
				"storage": [
					{
						"astId": 5,
						"contract": "contracts/Dapps/ethstore.sol:A",
						"label": "balances",
						"offset": 0,
						"slot": "0",
						"type": "t_mapping(t_address,t_uint256)"
					}
				],
				"types": {
					"t_address": {
						"encoding": "inplace",
						"label": "address",
						"numberOfBytes": "20"
					},
					"t_mapping(t_address,t_uint256)": {
						"encoding": "mapping",
						"key": "t_address",
						"label": "mapping(address => uint256)",
						"numberOfBytes": "32",
						"value": "t_uint256"
					},
					"t_uint256": {
						"encoding": "inplace",
						"label": "uint256",
						"numberOfBytes": "32"
					}
				}
			},
			"userdoc": {
				"kind": "user",
				"methods": {},
				"version": 1
			}
		}
	}
}